{
  "address": "0x29Bc4522Df8Ac8FA9f25E0477DA4B34B8aF6A78D",
  "abi": [
    {
      "inputs": [
        {
          "internalType": "address",
          "name": "_router",
          "type": "address"
        }
      ],
      "stateMutability": "nonpayable",
      "type": "constructor"
    },
    {
      "inputs": [
        {
          "internalType": "uint16",
          "name": "chainId",
          "type": "uint16"
        }
      ],
      "name": "DstChainNotFound",
      "type": "error"
    },
    {
      "inputs": [],
      "name": "Forbidden",
      "type": "error"
    },
    {
      "inputs": [],
      "name": "InvalidPayload",
      "type": "error"
    },
    {
      "inputs": [
        {
          "internalType": "uint256",
          "name": "poolId",
          "type": "uint256"
        }
      ],
      "name": "PoolNotFound",
      "type": "error"
    },
    {
      "inputs": [
        {
          "internalType": "bytes",
          "name": "reason",
          "type": "bytes"
        }
      ],
      "name": "SwapFailure",
      "type": "error"
    },
    {
      "inputs": [
        {
          "internalType": "bytes",
          "name": "reason",
          "type": "bytes"
        }
      ],
      "name": "SwapFailure",
      "type": "error"
    },
    {
      "anonymous": false,
      "inputs": [
        {
          "indexed": true,
          "internalType": "address",
          "name": "srcFrom",
          "type": "address"
        },
        {
          "indexed": true,
          "internalType": "address",
          "name": "to",
          "type": "address"
        },
        {
          "indexed": false,
          "internalType": "bytes",
          "name": "data",
          "type": "bytes"
        },
        {
          "indexed": false,
          "internalType": "bytes",
          "name": "reason",
          "type": "bytes"
        }
      ],
      "name": "CallFailure",
      "type": "event"
    },
    {
      "anonymous": false,
      "inputs": [
        {
          "indexed": true,
          "internalType": "address",
          "name": "previousOwner",
          "type": "address"
        },
        {
          "indexed": true,
          "internalType": "address",
          "name": "newOwner",
          "type": "address"
        }
      ],
      "name": "OwnershipTransferred",
      "type": "event"
    },
    {
      "anonymous": false,
      "inputs": [
        {
          "indexed": true,
          "internalType": "uint16",
          "name": "srcChainId",
          "type": "uint16"
        },
        {
          "indexed": true,
          "internalType": "bytes",
          "name": "srcAddress",
          "type": "bytes"
        },
        {
          "indexed": true,
          "internalType": "uint256",
          "name": "nonce",
          "type": "uint256"
        },
        {
          "indexed": false,
          "internalType": "address",
          "name": "token",
          "type": "address"
        },
        {
          "indexed": false,
          "internalType": "uint256",
          "name": "amountLD",
          "type": "uint256"
        },
        {
          "indexed": false,
          "internalType": "bytes",
          "name": "payload",
          "type": "bytes"
        }
      ],
      "name": "SGReceive",
      "type": "event"
    },
    {
      "anonymous": false,
      "inputs": [
        {
          "indexed": true,
          "internalType": "uint16",
          "name": "dstChainId",
          "type": "uint16"
        },
        {
          "indexed": true,
          "internalType": "address",
          "name": "dstAddress",
          "type": "address"
        }
      ],
      "name": "UpdateDstAddress",
      "type": "event"
    },
    {
      "inputs": [
        {
          "internalType": "uint16",
          "name": "",
          "type": "uint16"
        }
      ],
      "name": "dstAddress",
      "outputs": [
        {
          "internalType": "address",
          "name": "",
          "type": "address"
        }
      ],
      "stateMutability": "view",
      "type": "function"
    },
    {
      "inputs": [
        {
          "internalType": "uint16",
          "name": "dstChainId",
          "type": "uint16"
        },
        {
          "internalType": "address",
          "name": "dstCallTo",
          "type": "address"
        },
        {
          "internalType": "bytes",
          "name": "dstCallData",
          "type": "bytes"
        },
        {
          "internalType": "uint256",
          "name": "dstGasForCall",
          "type": "uint256"
        },
        {
          "internalType": "uint256",
          "name": "dstNativeAmount",
          "type": "uint256"
        },
        {
          "internalType": "address",
          "name": "from",
          "type": "address"
        }
      ],
      "name": "estimateFee",
      "outputs": [
        {
          "internalType": "uint256",
          "name": "",
          "type": "uint256"
        }
      ],
      "stateMutability": "view",
      "type": "function"
    },
    {
      "inputs": [],
      "name": "factory",
      "outputs": [
        {
          "internalType": "address",
          "name": "",
          "type": "address"
        }
      ],
      "stateMutability": "view",
      "type": "function"
    },
    {
      "inputs": [],
      "name": "owner",
      "outputs": [
        {
          "internalType": "address",
          "name": "",
          "type": "address"
        }
      ],
      "stateMutability": "view",
      "type": "function"
    },
    {
      "inputs": [],
      "name": "renounceOwnership",
      "outputs": [],
      "stateMutability": "nonpayable",
      "type": "function"
    },
    {
      "inputs": [],
      "name": "router",
      "outputs": [
        {
          "internalType": "address",
          "name": "",
          "type": "address"
        }
      ],
      "stateMutability": "view",
      "type": "function"
    },
    {
      "inputs": [
        {
          "internalType": "uint16",
          "name": "srcChainId",
          "type": "uint16"
        },
        {
          "internalType": "bytes",
          "name": "srcAddress",
          "type": "bytes"
        },
        {
          "internalType": "uint256",
          "name": "nonce",
          "type": "uint256"
        },
        {
          "internalType": "address",
          "name": "token",
          "type": "address"
        },
        {
          "internalType": "uint256",
          "name": "amountLD",
          "type": "uint256"
        },
        {
          "internalType": "bytes",
          "name": "payload",
          "type": "bytes"
        }
      ],
      "name": "sgReceive",
      "outputs": [],
      "stateMutability": "nonpayable",
      "type": "function"
    },
    {
      "inputs": [
        {
          "internalType": "address",
          "name": "token",
          "type": "address"
        },
        {
          "internalType": "uint256",
          "name": "amount",
          "type": "uint256"
        },
        {
          "components": [
            {
              "internalType": "address",
              "name": "swapTo",
              "type": "address"
            },
            {
              "internalType": "bytes",
              "name": "swapData",
              "type": "bytes"
            },
            {
              "internalType": "uint256",
              "name": "poolId",
              "type": "uint256"
            },
            {
              "internalType": "uint256",
              "name": "amount",
              "type": "uint256"
            },
            {
              "internalType": "uint16",
              "name": "dstChainId",
              "type": "uint16"
            },
            {
              "internalType": "uint256",
              "name": "dstPoolId",
              "type": "uint256"
            },
            {
              "internalType": "uint256",
              "name": "dstMinAmount",
              "type": "uint256"
            },
            {
              "internalType": "address",
              "name": "dstCallTo",
              "type": "address"
            },
            {
              "internalType": "bytes",
              "name": "dstCallData",
              "type": "bytes"
            },
            {
              "internalType": "uint256",
              "name": "dstGasForCall",
              "type": "uint256"
            },
            {
              "internalType": "uint256",
              "name": "dstNativeAmount",
              "type": "uint256"
            }
          ],
          "internalType": "struct IStargateProxy.TransferParams",
          "name": "params",
          "type": "tuple"
        }
      ],
      "name": "transferERC20",
      "outputs": [],
      "stateMutability": "payable",
      "type": "function"
    },
    {
      "inputs": [
        {
          "internalType": "uint256",
          "name": "amount",
          "type": "uint256"
        },
        {
          "components": [
            {
              "internalType": "address",
              "name": "swapTo",
              "type": "address"
            },
            {
              "internalType": "bytes",
              "name": "swapData",
              "type": "bytes"
            },
            {
              "internalType": "uint256",
              "name": "poolId",
              "type": "uint256"
            },
            {
              "internalType": "uint256",
              "name": "amount",
              "type": "uint256"
            },
            {
              "internalType": "uint16",
              "name": "dstChainId",
              "type": "uint16"
            },
            {
              "internalType": "uint256",
              "name": "dstPoolId",
              "type": "uint256"
            },
            {
              "internalType": "uint256",
              "name": "dstMinAmount",
              "type": "uint256"
            },
            {
              "internalType": "address",
              "name": "dstCallTo",
              "type": "address"
            },
            {
              "internalType": "bytes",
              "name": "dstCallData",
              "type": "bytes"
            },
            {
              "internalType": "uint256",
              "name": "dstGasForCall",
              "type": "uint256"
            },
            {
              "internalType": "uint256",
              "name": "dstNativeAmount",
              "type": "uint256"
            }
          ],
          "internalType": "struct IStargateProxy.TransferParams",
          "name": "params",
          "type": "tuple"
        }
      ],
      "name": "transferNative",
      "outputs": [],
      "stateMutability": "payable",
      "type": "function"
    },
    {
      "inputs": [
        {
          "internalType": "address",
          "name": "newOwner",
          "type": "address"
        }
      ],
      "name": "transferOwnership",
      "outputs": [],
      "stateMutability": "nonpayable",
      "type": "function"
    },
    {
      "inputs": [
        {
          "internalType": "uint16",
          "name": "dstChainId",
          "type": "uint16"
        },
        {
          "internalType": "address",
          "name": "_dstAddress",
          "type": "address"
        }
      ],
      "name": "updateDstAddress",
      "outputs": [],
      "stateMutability": "nonpayable",
      "type": "function"
    }
  ],
  "transactionHash": "0xb89c35e6e3cb4b3ec94efa105ddf7c57da86dbbaf952a405defa88110e389ac1",
  "args": [
    "0xbB0f1be1E9CE9cB27EA5b0c3a85B7cc3381d8176"
  ],
  "numDeployments": 2,
  "solcInputHash": "6a92ef10e8c41c2f93b3446e73c710fc",
  "bytecode": "0x60c08060405234620001265762000030906200171b80380380916200002582856200012b565b833981019062000165565b60008054336001600160a01b03198216811783556040519293602092849260049284926001600160a01b03929083167f8be0079c531659141344cd1fd0a4f28419497f9722a3daafe3b4186f6b6457e08a80a3608081905263c45a015560e01b8352165afa9182156200011a5791620000e5575b5060a052604051611594908162000187823960805181818160af015281816104ca01528181610c0b0152611264015260a05181818161042c01526111e20152f35b6200010b915060203d811162000112575b6200010281836200012b565b81019062000165565b38620000a4565b503d620000f6565b604051903d90823e3d90fd5b600080fd5b601f909101601f19168101906001600160401b038211908210176200014f57604052565b634e487b7160e01b600052604160045260246000fd5b908160209103126200012657516001600160a01b038116810362000126579056fe608080604052600436101561001357600080fd5b600090813560e01c908163452cdfc514610d235750806348b6fbd014610ca557806359f74e4714610a9b578063715018a614610a415780638da5cb5b14610a1a57806395db25541461085f578063ab8236f31461045b578063c45a015514610416578063cf04e1af146101a7578063f2fde38b146100e15763f887ea401461009a57600080fd5b346100de57806003193601126100de576040517f00000000000000000000000000000000000000000000000000000000000000006001600160a01b03168152602090f35b80fd5b50346100de5760203660031901126100de576100fb610d84565b610103610dc8565b6001600160a01b0390811690811561015357600054826001600160601b0360a01b821617600055167f8be0079c531659141344cd1fd0a4f28419497f9722a3daafe3b4186f6b6457e0600080a380f35b60405162461bcd60e51b815260206004820152602660248201527f4f776e61626c653a206e6577206f776e657220697320746865207a65726f206160448201526564647265737360d01b6064820152608490fd5b50600319606036820112610412576101bd610d84565b906044359167ffffffffffffffff831161040e576101608360040192843603011261040e576040516323b872dd60e01b6020808301919091523360248084019190915230604484015280356064808501919091528352946001600160a01b0393841693919290919061023a90610234608482610e82565b85610fc0565b8061024486610f0e565b16610259575b86610256343388611191565b80f35b61026285610f0e565b8761027961027289860189610f22565b3691610f71565b60405163095ea7b360e01b8082526001600160a01b0385166004830152606496909601356024820152908682604481868c5af19182156104035783926103e6575b50868151910182855af16102cc61109a565b90156103be57506040519283521660048201528585820152818160448189875af180156103b357610386575b508060405180956370a0823160e01b825230600483015281855afa90811561037b578591610346575b50610256935080610334575b808061024a565b61033f91339061151b565b388061032d565b905083813d8311610374575b61035c8183610e82565b8101031261036f57610256925138610321565b600080fd5b503d610352565b6040513d87823e3d90fd5b6103a590823d84116103ac575b61039d8183610e82565b810190610fa8565b50386102f8565b503d610393565b6040513d88823e3d90fd5b604051630c369d2560e01b8152600481018690529081906103e290828b0190610ea4565b0390fd5b6103fc90883d8a116103ac5761039d8183610e82565b50386102ba565b6040513d85823e3d90fd5b8380fd5b5080fd5b50346100de57806003193601126100de576040517f00000000000000000000000000000000000000000000000000000000000000006001600160a01b03168152602090f35b50346100de5760c03660031901126100de57610475610d5d565b67ffffffffffffffff60243581811161040e57610496903690600401610d9a565b6001600160a01b0392909190606435808516900361085b5760a43590811161085b576104c6903690600401610d9a565b92847f00000000000000000000000000000000000000000000000000000000000000001633036108495783601411610671578360281161067157601482013560601c6106c5575b6040516370a0823160e01b815230600482015287906020816024816064358b165afa9081156106ba578291610686575b50806105d6575b50927f4798e9efbbc84d88c90c46f86d32ae4d8c033fe3a2021cd045cab33f7102164a9347806105ba575b50508160405192839283378101888152039020936105b460405192839260643516835260843560208401526060604084015261ffff60443598169560608401916114fa565b0390a480f35b81808092873560601c5af1506105ce61109a565b50873861056f565b601484013560601c610675576105f681853560601c5b896064351661151b565b601484013560601c1561054457601484013560601c3b156104125760405163248ff46d60e01b8152606480356001600160a01b03166004830152853560601c60248301526044820192909252908290829081908101038183601489013560601c5af1156105445761066690610e52565b610671578638610544565b8680fd5b6105f681601486013560601c6105ec565b9150506020813d82116106b2575b816106a160209383610e82565b8101031261036f578790513861053d565b3d9150610694565b6040513d84823e3d90fd5b6106dd608435601484013560601c876064351661151b565b601482013560601c3b15610671576040516344ab9e6360e01b8152823560601c600482015285606435166024820152608435604482015260806064820152878180610733608482016027198a01602889016114fa565b038183601488013560601c5af19081610836575b506108315761075461109a565b601483013560601c3b1561082d5760405163248ff46d60e01b8152606480356001600160a01b03166004830152843560601c60248301526084356044830152899190829082908190810103818360148a013560601c5af1610819575b505060405190604082527f7d392e8caca12cdca700dff8a794504e432b8ddb7950261ea7997b9cd6a1b2b66107f0604084016027198901602888016114fa565b92808403602082015280610811601488013560601c95883560601c95610ea4565b0390a361050d565b61082290610e52565b61082d5787386107b0565b8780fd5b61050d565b61084290989198610e52565b9638610747565b604051631dd2188d60e31b8152600490fd5b8580fd5b50600319906040368301126100de57602491823567ffffffffffffffff8111610a165761016081600401928236030112610a165782906001600160a01b036108a684610f0e565b166108da575b50506004353403903482116108c75790610256913390611191565b5050634e487b7160e01b81526011600452fd5b81906108e584610f0e565b906108f561027288830187610f22565b916064602084519401920135905af161090c61109a565b90156109f257504780610921575b82906108ac565b8047106109ae578280808093335af161093861109a565b5015610944573861091a565b60405162461bcd60e51b815260206004820152603a818501527f416464726573733a20756e61626c6520746f2073656e642076616c75652c207260448201527f6563697069656e74206d617920686176652072657665727465640000000000006064820152608490fd5b60405162461bcd60e51b815260206004820152601d818601527f416464726573733a20696e73756666696369656e742062616c616e63650000006044820152606490fd5b604051630c369d2560e01b8152602060048201529081906103e29082870190610ea4565b8280fd5b50346100de57806003193601126100de57546040516001600160a01b039091168152602090f35b50346100de57806003193601126100de57610a5a610dc8565b80546001600160a01b03198116825581906001600160a01b03167f8be0079c531659141344cd1fd0a4f28419497f9722a3daafe3b4186f6b6457e08280a380f35b50346100de576003199060c0368301126100de57610ab7610d5d565b610abf610d6e565b9060443567ffffffffffffffff811161040e57610ae0903690600401610d9a565b946001600160a01b039260a435919084831683036106715761ffff16918287526020976001895260408820549486861615610c8c5790808a949392604051976001600160601b03199a8b809260601b16888b015260148a52610b418a610e66565b6040519b8c9660601b16809887015260601b1660348501526048840137810188604882015203602881018752604801610b7a9087610e82565b604051918883015260148252610b8f82610e66565b60405191610b9c83610e20565b60643583526084358984015260408301526040519586948594630a51236960e01b8652600486015260248501600190526044850160a0905260a48501610be191610ea4565b82858203016064860152610bf491610ea4565b90838203016084840152610c0791610ee4565b03917f00000000000000000000000000000000000000000000000000000000000000001691815a93604094fa918215610c80578092610c4b575b5050604051908152f35b9091506040823d604011610c78575b81610c6760409383610e82565b810103126100de5750513880610c41565b3d9150610c5a565b604051903d90823e3d90fd5b6040516315fe4c1560e01b815260048101869052602490fd5b50346100de5760403660031901126100de57610cbf610d5d565b61ffff610cca610d6e565b91610cd3610dc8565b1680835260016020526040832080546001600160a01b0319166001600160a01b0390931692831790557f2a00dad3333a840171ea0391ef1a1241e87753bd39154bffbeee262a59a4b09d8380a380f35b9050346104125760203660031901126104125760209161ffff610d44610d5d565b1681526001835260409020546001600160a01b03168152f35b6004359061ffff8216820361036f57565b602435906001600160a01b038216820361036f57565b600435906001600160a01b038216820361036f57565b9181601f8401121561036f5782359167ffffffffffffffff831161036f576020838186019501011161036f57565b6000546001600160a01b03163303610ddc57565b606460405162461bcd60e51b815260206004820152602060248201527f4f776e61626c653a2063616c6c6572206973206e6f7420746865206f776e65726044820152fd5b6060810190811067ffffffffffffffff821117610e3c57604052565b634e487b7160e01b600052604160045260246000fd5b67ffffffffffffffff8111610e3c57604052565b6040810190811067ffffffffffffffff821117610e3c57604052565b90601f8019910116810190811067ffffffffffffffff821117610e3c57604052565b919082519283825260005b848110610ed0575050826000602080949584010152601f8019910116010190565b602081830181015184830182015201610eaf565b9060606040610f0b9380518452602081015160208501520151918160408201520190610ea4565b90565b356001600160a01b038116810361036f5790565b903590601e198136030182121561036f570180359067ffffffffffffffff821161036f5760200191813603831361036f57565b67ffffffffffffffff8111610e3c57601f01601f191660200190565b929192610f7d82610f55565b91610f8b6040519384610e82565b82948184528183011161036f578281602093846000960137010152565b9081602091031261036f5751801515810361036f5790565b60405161101e916001600160a01b0316610fd982610e66565b6000806020958685527f5361666545524332303a206c6f772d6c6576656c2063616c6c206661696c656487860152868151910182855af161101861109a565b916110ca565b8051908161102b57505050565b828061103b938301019101610fa8565b156110435750565b6084906040519062461bcd60e51b82526004820152602a60248201527f5361666545524332303a204552433230206f7065726174696f6e20646964206e6044820152691bdd081cdd58d8d9595960b21b6064820152fd5b3d156110c5573d906110ab82610f55565b916110b96040519384610e82565b82523d6000602084013e565b606090565b9192901561112c57508151156110de575090565b3b156110e75790565b60405162461bcd60e51b815260206004820152601d60248201527f416464726573733a2063616c6c20746f206e6f6e2d636f6e74726163740000006044820152606490fd5b82519091501561113f5750805190602001fd5b60405162461bcd60e51b8152602060048201529081906103e2906024830190610ea4565b3561ffff8116810361036f5790565b9081602091031261036f57516001600160a01b038116810361036f5790565b9190608083019161ffff6111a484611163565b16600052602090600182526040600020549360018060a01b038516156114d6576040805163068bcd8d60e01b815290870135600482015283816024817f00000000000000000000000000000000000000000000000000000000000000006001600160a01b03165afa908115611441576000916114b9575b506001600160a01b0316801561149d579083600494939260405195868092637e062a3560e11b82525afa9384156114415760009461146a575b5060405163095ea7b360e01b81527f00000000000000000000000000000000000000000000000000000000000000006001600160a01b038116600483015260608901356024830152949091908490839081600081604481015b03926001600160a01b03165af1918215611441576112d09261144d575b50611163565b60405161138260486001600160601b031995868960601b16968782860152601485526112fb85610e66565b6040519461130886610e20565b6101208d013586526101408d0135838701526040860152806040519b60601b16828c015260148b526113398b610e66565b61134560e08d01610f0e565b6113536101008e018e610f22565b9283926040519b8c9687015260601b166034850152848401378101600083820152036028810187520185610e82565b6001600160a01b0385163b1561036f5760009661ffff946114176114046114279460c06040519d8e9c8d9b8c9a6327efc43f60e21b8c521660048b0152604082013560248b015260a082013560448b015260018060a01b031660648a0152606081013560848a0152013560a488015261012060c4880152610124870190610ee4565b60031993848783030160e4880152610ea4565b9184830301610104850152610ea4565b03926001600160a01b03165af1801561144157610e525750565b6040513d6000823e3d90fd5b61146390853d87116103ac5761039d8183610e82565b50386112ca565b6112ad91945061148f90843d8611611496575b6114878183610e82565b810190611172565b9390611254565b503d61147d565b604080516302ad881560e41b8152908801356004820152602490fd5b6114d09150843d8611611496576114878183610e82565b3861121b565b6114e1602491611163565b61ffff604051916315fe4c1560e01b8352166004820152fd5b908060209392818452848401376000828201840152601f01601f1916010190565b60405163a9059cbb60e01b60208201526001600160a01b0392909216602483015260448083019390935291815261155c91611557606483610e82565b610fc0565b56fea2646970667358221220cec2e6f1b40187e810c88364fb891620b2df859857f1073cbb7eb76bac87770964736f6c63430008110033",
  "devdoc": {
    "kind": "dev",
    "methods": {
      "owner()": {
        "details": "Returns the address of the current owner."
      },
      "renounceOwnership()": {
        "details": "Leaves the contract without owner. It will not be possible to call `onlyOwner` functions anymore. Can only be called by the current owner. NOTE: Renouncing ownership will leave the contract without an owner, thereby removing any functionality that is only available to the owner."
      },
      "transferOwnership(address)": {
        "details": "Transfers ownership of the contract to a new account (`newOwner`). Can only be called by the current owner."
      }
    },
    "version": 1
  },
  "userdoc": {
    "kind": "user",
    "methods": {},
    "version": 1
  },
  "storageLayout": {
    "storage": [
      {
        "astId": 7,
        "contract": "contracts/StargateProxy.sol:StargateProxy",
        "label": "_owner",
        "offset": 0,
        "slot": "0",
        "type": "t_address"
      },
      {
        "astId": 1964,
        "contract": "contracts/StargateProxy.sol:StargateProxy",
        "label": "dstAddress",
        "offset": 0,
        "slot": "1",
        "type": "t_mapping(t_uint16,t_address)"
      }
    ],
    "types": {
      "t_address": {
        "encoding": "inplace",
        "label": "address",
        "numberOfBytes": "20"
      },
      "t_mapping(t_uint16,t_address)": {
        "encoding": "mapping",
        "key": "t_uint16",
        "label": "mapping(uint16 => address)",
        "numberOfBytes": "32",
        "value": "t_address"
      },
      "t_uint16": {
        "encoding": "inplace",
        "label": "uint16",
        "numberOfBytes": "2"
      }
    }
  }
}