{
  "address": "0x6F65E5628D29133Ee6834D1Bfa9a2a3062DA3553",
  "abi": [
    {
      "inputs": [
        {
          "internalType": "address",
          "name": "_router",
          "type": "address"
        }
      ],
      "stateMutability": "nonpayable",
      "type": "constructor"
    },
    {
      "inputs": [
        {
          "internalType": "uint16",
          "name": "chainId",
          "type": "uint16"
        }
      ],
      "name": "DstChainNotFound",
      "type": "error"
    },
    {
      "inputs": [],
      "name": "Forbidden",
      "type": "error"
    },
    {
      "inputs": [],
      "name": "InvalidPayload",
      "type": "error"
    },
    {
      "inputs": [],
      "name": "NoStoredMessage",
      "type": "error"
    },
    {
      "inputs": [
        {
          "internalType": "uint256",
          "name": "poolId",
          "type": "uint256"
        }
      ],
      "name": "PoolNotFound",
      "type": "error"
    },
    {
      "anonymous": false,
      "inputs": [
        {
          "indexed": true,
          "internalType": "uint16",
          "name": "srcChainId",
          "type": "uint16"
        },
        {
          "indexed": true,
          "internalType": "address",
          "name": "srcAddress",
          "type": "address"
        },
        {
          "indexed": true,
          "internalType": "address",
          "name": "srcFrom",
          "type": "address"
        },
        {
          "indexed": false,
          "internalType": "address",
          "name": "token",
          "type": "address"
        },
        {
          "indexed": false,
          "internalType": "uint256",
          "name": "amountLD",
          "type": "uint256"
        },
        {
          "indexed": false,
          "internalType": "bytes32",
          "name": "paramsHash",
          "type": "bytes32"
        }
      ],
      "name": "HandleMessage",
      "type": "event"
    },
    {
      "anonymous": false,
      "inputs": [
        {
          "indexed": true,
          "internalType": "uint16",
          "name": "srcChainId",
          "type": "uint16"
        },
        {
          "indexed": true,
          "internalType": "address",
          "name": "srcAddress",
          "type": "address"
        },
        {
          "indexed": true,
          "internalType": "address",
          "name": "srcFrom",
          "type": "address"
        },
        {
          "indexed": false,
          "internalType": "uint256",
          "name": "nonce",
          "type": "uint256"
        },
        {
          "indexed": false,
          "internalType": "address",
          "name": "token",
          "type": "address"
        },
        {
          "indexed": false,
          "internalType": "uint256",
          "name": "amountLD",
          "type": "uint256"
        },
        {
          "indexed": false,
          "internalType": "bytes",
          "name": "params",
          "type": "bytes"
        },
        {
          "indexed": false,
          "internalType": "bytes",
          "name": "reason",
          "type": "bytes"
        }
      ],
      "name": "MessageFailed",
      "type": "event"
    },
    {
      "anonymous": false,
      "inputs": [
        {
          "indexed": true,
          "internalType": "address",
          "name": "previousOwner",
          "type": "address"
        },
        {
          "indexed": true,
          "internalType": "address",
          "name": "newOwner",
          "type": "address"
        }
      ],
      "name": "OwnershipTransferred",
      "type": "event"
    },
    {
      "anonymous": false,
      "inputs": [
        {
          "indexed": true,
          "internalType": "uint16",
          "name": "srcChainId",
          "type": "uint16"
        },
        {
          "indexed": true,
          "internalType": "address",
          "name": "srcAddress",
          "type": "address"
        },
        {
          "indexed": true,
          "internalType": "address",
          "name": "srcFrom",
          "type": "address"
        },
        {
          "indexed": false,
          "internalType": "uint256",
          "name": "nonce",
          "type": "uint256"
        },
        {
          "indexed": false,
          "internalType": "address",
          "name": "token",
          "type": "address"
        },
        {
          "indexed": false,
          "internalType": "uint256",
          "name": "amountLD",
          "type": "uint256"
        },
        {
          "indexed": false,
          "internalType": "bytes32",
          "name": "paramsHash",
          "type": "bytes32"
        }
      ],
      "name": "RetryMessageSuccess",
      "type": "event"
    },
    {
      "anonymous": false,
      "inputs": [
        {
          "indexed": true,
          "internalType": "uint16",
          "name": "srcChainId",
          "type": "uint16"
        },
        {
          "indexed": true,
          "internalType": "bytes",
          "name": "srcAddress",
          "type": "bytes"
        },
        {
          "indexed": true,
          "internalType": "uint256",
          "name": "nonce",
          "type": "uint256"
        },
        {
          "indexed": false,
          "internalType": "address",
          "name": "token",
          "type": "address"
        },
        {
          "indexed": false,
          "internalType": "uint256",
          "name": "amountLD",
          "type": "uint256"
        },
        {
          "indexed": false,
          "internalType": "bytes",
          "name": "payload",
          "type": "bytes"
        }
      ],
      "name": "SGReceive",
      "type": "event"
    },
    {
      "anonymous": false,
      "inputs": [
        {
          "indexed": true,
          "internalType": "uint16",
          "name": "dstChainId",
          "type": "uint16"
        },
        {
          "indexed": true,
          "internalType": "address",
          "name": "dstAddress",
          "type": "address"
        }
      ],
      "name": "UpdateDstAddress",
      "type": "event"
    },
    {
      "anonymous": false,
      "inputs": [
        {
          "indexed": true,
          "internalType": "uint256",
          "name": "poolId",
          "type": "uint256"
        },
        {
          "indexed": true,
          "internalType": "address",
          "name": "token",
          "type": "address"
        }
      ],
      "name": "UpdateToken",
      "type": "event"
    },
    {
      "inputs": [
        {
          "internalType": "uint16",
          "name": "",
          "type": "uint16"
        }
      ],
      "name": "dstAddress",
      "outputs": [
        {
          "internalType": "address",
          "name": "",
          "type": "address"
        }
      ],
      "stateMutability": "view",
      "type": "function"
    },
    {
      "inputs": [
        {
          "internalType": "uint16",
          "name": "dstChainId",
          "type": "uint16"
        },
        {
          "internalType": "address[]",
          "name": "dstRecipients",
          "type": "address[]"
        },
        {
          "internalType": "uint256[]",
          "name": "dstAmounts",
          "type": "uint256[]"
        },
        {
          "internalType": "uint256",
          "name": "gas",
          "type": "uint256"
        },
        {
          "internalType": "address",
          "name": "from",
          "type": "address"
        }
      ],
      "name": "estimateFee",
      "outputs": [
        {
          "internalType": "uint256",
          "name": "",
          "type": "uint256"
        }
      ],
      "stateMutability": "view",
      "type": "function"
    },
    {
      "inputs": [],
      "name": "factory",
      "outputs": [
        {
          "internalType": "address",
          "name": "",
          "type": "address"
        }
      ],
      "stateMutability": "view",
      "type": "function"
    },
    {
      "inputs": [
        {
          "internalType": "uint16",
          "name": "",
          "type": "uint16"
        },
        {
          "internalType": "address",
          "name": "",
          "type": "address"
        },
        {
          "internalType": "address",
          "name": "",
          "type": "address"
        },
        {
          "internalType": "uint256",
          "name": "",
          "type": "uint256"
        }
      ],
      "name": "failedMessages",
      "outputs": [
        {
          "internalType": "address",
          "name": "token",
          "type": "address"
        },
        {
          "internalType": "uint256",
          "name": "amountLD",
          "type": "uint256"
        },
        {
          "internalType": "bytes32",
          "name": "paramsHash",
          "type": "bytes32"
        }
      ],
      "stateMutability": "view",
      "type": "function"
    },
    {
      "inputs": [
        {
          "internalType": "uint16",
          "name": "srcChainId",
          "type": "uint16"
        },
        {
          "internalType": "address",
          "name": "srcAddress",
          "type": "address"
        },
        {
          "internalType": "address",
          "name": "srcFrom",
          "type": "address"
        },
        {
          "internalType": "address",
          "name": "token",
          "type": "address"
        },
        {
          "internalType": "uint256",
          "name": "amountLD",
          "type": "uint256"
        },
        {
          "internalType": "bytes",
          "name": "params",
          "type": "bytes"
        }
      ],
      "name": "handleMessage",
      "outputs": [],
      "stateMutability": "nonpayable",
      "type": "function"
    },
    {
      "inputs": [],
      "name": "owner",
      "outputs": [
        {
          "internalType": "address",
          "name": "",
          "type": "address"
        }
      ],
      "stateMutability": "view",
      "type": "function"
    },
    {
      "inputs": [],
      "name": "renounceOwnership",
      "outputs": [],
      "stateMutability": "nonpayable",
      "type": "function"
    },
    {
      "inputs": [
        {
          "internalType": "uint16",
          "name": "srcChainId",
          "type": "uint16"
        },
        {
          "internalType": "address",
          "name": "srcAddress",
          "type": "address"
        },
        {
          "internalType": "address",
          "name": "srcFrom",
          "type": "address"
        },
        {
          "internalType": "uint256",
          "name": "nonce",
          "type": "uint256"
        },
        {
          "internalType": "bytes",
          "name": "params",
          "type": "bytes"
        }
      ],
      "name": "retryMessage",
      "outputs": [],
      "stateMutability": "payable",
      "type": "function"
    },
    {
      "inputs": [],
      "name": "router",
      "outputs": [
        {
          "internalType": "address",
          "name": "",
          "type": "address"
        }
      ],
      "stateMutability": "view",
      "type": "function"
    },
    {
      "inputs": [
        {
          "internalType": "uint16",
          "name": "srcChainId",
          "type": "uint16"
        },
        {
          "internalType": "bytes",
          "name": "srcAddress",
          "type": "bytes"
        },
        {
          "internalType": "uint256",
          "name": "nonce",
          "type": "uint256"
        },
        {
          "internalType": "address",
          "name": "token",
          "type": "address"
        },
        {
          "internalType": "uint256",
          "name": "amountLD",
          "type": "uint256"
        },
        {
          "internalType": "bytes",
          "name": "payload",
          "type": "bytes"
        }
      ],
      "name": "sgReceive",
      "outputs": [],
      "stateMutability": "nonpayable",
      "type": "function"
    },
    {
      "inputs": [
        {
          "components": [
            {
              "internalType": "uint256",
              "name": "poolId",
              "type": "uint256"
            },
            {
              "internalType": "uint256",
              "name": "amount",
              "type": "uint256"
            },
            {
              "internalType": "uint16",
              "name": "dstChainId",
              "type": "uint16"
            },
            {
              "internalType": "uint256",
              "name": "dstPoolId",
              "type": "uint256"
            },
            {
              "internalType": "address[]",
              "name": "dstRecipients",
              "type": "address[]"
            },
            {
              "internalType": "uint256[]",
              "name": "dstAmounts",
              "type": "uint256[]"
            },
            {
              "internalType": "uint256",
              "name": "gas",
              "type": "uint256"
            }
          ],
          "internalType": "struct IOmniDisperse.SwapParams",
          "name": "params",
          "type": "tuple"
        }
      ],
      "name": "swap",
      "outputs": [],
      "stateMutability": "payable",
      "type": "function"
    },
    {
      "inputs": [
        {
          "internalType": "address",
          "name": "newOwner",
          "type": "address"
        }
      ],
      "name": "transferOwnership",
      "outputs": [],
      "stateMutability": "nonpayable",
      "type": "function"
    },
    {
      "inputs": [
        {
          "internalType": "uint16",
          "name": "dstChainId",
          "type": "uint16"
        },
        {
          "internalType": "address",
          "name": "_dstAddress",
          "type": "address"
        }
      ],
      "name": "updateDstAddress",
      "outputs": [],
      "stateMutability": "nonpayable",
      "type": "function"
    }
  ],
  "transactionHash": "0xb4960c0bd4fb278f98b61873917c88e6ee06ff3f7f83052def74cf5b84541dbf",
  "args": [
    "0xB0D502E938ed5f4df2E681fE6E419ff29631d62b"
  ],
  "numDeployments": 1,
  "solcInputHash": "921bc3c36585b9d910b2345d3aa079ec",
  "bytecode": "0x60c080604052346200012757620000309062001c7880380380916200002582856200012c565b833981019062000166565b60008054336001600160a01b03198216811783556040519293602092849260049284926001600160a01b03929083167f8be0079c531659141344cd1fd0a4f28419497f9722a3daafe3b4186f6b6457e08a80a3608081905263c45a015560e01b8352165afa9182156200011b5791620000e6575b5060a052604051611af0908162000188823960805181818161081e01528181610bab01528181610e0e0152611162015260a051818181610a1a015261109b0152f35b6200010c915060203d811162000113575b6200010381836200012c565b81019062000166565b38620000a4565b503d620000f7565b604051903d90823e3d90fd5b600080fd5b601f909101601f19168101906001600160401b038211908210176200015057604052565b634e487b7160e01b600052604160045260246000fd5b908160209103126200012757516001600160a01b038116810362000127579056fe60806040526004361015610013575b600080fd5b60003560e01c8063452cdfc51461011757806348b6fbd01461010e578063556f2f1e14610105578063598f93bd146100fc578063715018a6146100f35780638da5cb5b146100ea5780638fbe3abc146100e1578063ab8236f3146100d8578063c45a0155146100cf578063e074ec32146100c6578063f2fde38b146100bd578063f6b49ba0146100b45763f887ea40146100ac57600080fd5b61000e610df7565b5061000e610d72565b5061000e610c49565b5061000e610a49565b5061000e610a03565b5061000e6107a9565b5061000e6105f0565b5061000e610599565b5061000e61053a565b5061000e610471565b5061000e6103b8565b5061000e61018f565b5061000e610140565b6004359061ffff8216820361000e57565b359061ffff8216820361000e57565b503461000e57602036600319011261000e5761ffff61015d610120565b166000526001602052602060018060a01b0360406000205416604051908152f35b6001600160a01b0381160361000e57565b503461000e57604036600319011261000e576101a9610120565b61ffff602435916101b98361017e565b6101c1610e3d565b16600081815260016020526040812080546001600160a01b0319166001600160a01b038516179055916001600160a01b0316907f2a00dad3333a840171ea0391ef1a1241e87753bd39154bffbeee262a59a4b09d8380a380f35b50634e487b7160e01b600052604160045260246000fd5b6001600160401b03811161024557604052565b61024d61021b565b604052565b604081019081106001600160401b0382111761024557604052565b90601f801991011681019081106001600160401b0382111761024557604052565b6040519060e082018281106001600160401b0382111761024557604052565b60405190606082018281106001600160401b0382111761024557604052565b6020906001600160401b0381116102e5575b60051b0190565b6102ed61021b565b6102de565b81601f8201121561000e57803591610309836102cc565b92610317604051948561026d565b808452602092838086019260051b82010192831161000e578301905b828210610341575050505090565b838091833561034f8161017e565b815201910190610333565b81601f8201121561000e57803591610371836102cc565b9261037f604051948561026d565b808452602092838086019260051b82010192831161000e578301905b8282106103a9575050505090565b8135815290830190830161039b565b5060031960203682011261000e57600435906001600160401b039081831161000e5760e090833603011261000e576103ee61028e565b90826004013582526024830135602083015261040c60448401610131565b604083015260648301356060830152608483013581811161000e5761043790600436918601016102f2565b608083015260a483013590811161000e5761046f9261045e60c4926004369184010161035a565b60a0840152013560c0820152611036565b005b503461000e57608036600319011261000e576104e961048e610120565b6104d260243561049d8161017e565b61ffff604435936104ad8561017e565b16600052600260205260406000209060018060a01b0316600052602052604060002090565b9060018060a01b0316600052602052604060002090565b606435600090815260209182526040908190208054600182015460029092015483516001600160a01b0390921682529381019190915290810191909152606090f35b0390f35b600091031261000e57565b503461000e5760008060031936011261059657610555610e3d565b80546001600160a01b03198116825581906001600160a01b03167f8be0079c531659141344cd1fd0a4f28419497f9722a3daafe3b4186f6b6457e08280a380f35b80fd5b503461000e57600036600319011261000e576000546040516001600160a01b039091168152602090f35b9181601f8401121561000e578235916001600160401b03831161000e576020838186019501011161000e57565b5060a036600319011261000e57610605610120565b602435906106128261017e565b60443561061e8161017e565b606435906084356001600160401b03811161000e576106419036906004016105c3565b909161067e6106798561066a846104d28b6104d28c61ffff166000526002602052604060002090565b90600052602052604060002090565b611a03565b604081019384511561079757610695368583610d3b565b60208151910120855103610785577fcfe6b990e4af6de0aabfb19c1049389773265cb0e8bbb5fe4d7b7749f95c1a2d94610744610780936107378a61ffff9861070f6106fd8f61066a8f916104d28e916104d28961ffff166000526002602052604060002090565b60026000918281558260018201550155565b83518e908a906001600160a01b031691610731602088019a8b51953691610d3b565b946118c3565b516001600160a01b031690565b91519051604080519889526001600160a01b0393841660208a015288019190915260608701529182169690911694909116929081906080820190565b0390a4005b604051637c6953f960e01b8152600490fd5b604051632b96c98560e21b8152600490fd5b503461000e5760c036600319011261000e576107c3610120565b6001600160401b0360243581811161000e576107e39036906004016105c3565b929060443593606435926107f68461017e565b6084359460a43590811161000e576108129036906004016105c3565b6001600160a01b0394917f0000000000000000000000000000000000000000000000000000000000000000861633036109f157610910858489878d8d7f4798e9efbbc84d88c90c46f86d32ae4d8c033fe3a2021cd045cab33f7102164a9c8861089461088e61ffff9f610888906107809f611689565b906116b4565b60601c90565b956108ba6108b38d806108ad61088e6108888389611689565b95611697565b3691610d3b565b6108fa885a6108f48a6108e6868b898b6040519889966307b5a4dd60e51b6020890152602488016116e5565b03601f19810184528361026d565b30611a51565b91901561091f575b505050505050505050611769565b9760405195869516978561177e565b7f65bd85abdabd424fd557162c9a054b13d825065d5f7981fcab1921bb74462126956109e0936109ca8a6109958b61066a8f6104d28c916104d28b5160208d0120976109696102ad565b6001600160a01b038c168152988c60208b015260408a015261ffff166000526002602052604060002090565b815181546001600160a01b0319166001600160a01b039190911617815590600290604090602081015160018501550151910155565b61ffff87604051988998169c169a16988661172a565b0390a438878d8d83808f8180610902565b604051631dd2188d60e31b8152600490fd5b503461000e57600036600319011261000e576040517f00000000000000000000000000000000000000000000000000000000000000006001600160a01b03168152602090f35b503461000e5760a036600319011261000e57610a63610120565b6001600160401b039060243582811161000e57610a849036906004016102f2565b9160443590811161000e57610a9d90369060040161035a565b608435610aa98161017e565b610ad1610ac48461ffff166000526001602052604060002090565b546001600160a01b031690565b936001600160a01b039182861615610c295791610b19610b67610b4a959361052b989560409788978851958691602083016014916001600160601b03199060601b1681520190565b0392610b2d601f199485810188528761026d565b610b3e895198899260208401610e95565b0383810188528761026d565b610b5b875196879260208401610f33565b0390810185528461026d565b610b6f6102ad565b95606435875260006020880152610b84610f5f565b85880152610ba7855197889586948594630a51236960e01b865260048601610fe2565b03917f0000000000000000000000000000000000000000000000000000000000000000165afa918215610c1c575b600092610bec575b50519081529081906020820190565b81610c0d9293503d8411610c15575b610c05818361026d565b810190610f7d565b509038610bdd565b503d610bfb565b610c24611029565b610bd5565b6040516315fe4c1560e01b815261ffff86166004820152602490fd5b0390fd5b503461000e57602036600319011261000e57600435610c678161017e565b610c6f610e3d565b6001600160a01b039081168015610cbd57600080546001600160a01b03198116831782559092167f8be0079c531659141344cd1fd0a4f28419497f9722a3daafe3b4186f6b6457e08380a380f35b60405162461bcd60e51b815260206004820152602660248201527f4f776e61626c653a206e6577206f776e657220697320746865207a65726f206160448201526564647265737360d01b6064820152608490fd5b6020906001600160401b038111610d2e575b601f01601f19160190565b610d3661021b565b610d23565b929192610d4782610d11565b91610d55604051938461026d565b82948184528183011161000e578281602093846000960137010152565b503461000e5760c036600319011261000e57610d8c610120565b60243590610d998261017e565b60443590610da68261017e565b606435610db28161017e565b60a4356001600160401b03811161000e573660238201121561000e57610de2903690602481600401359101610d3b565b923033036109f15761046f94608435936118c3565b503461000e57600036600319011261000e576040517f00000000000000000000000000000000000000000000000000000000000000006001600160a01b03168152602090f35b6000546001600160a01b03163303610e5157565b606460405162461bcd60e51b815260206004820152602060248201527f4f776e61626c653a2063616c6c6572206973206e6f7420746865206f776e65726044820152fd5b6040810190604081528251809252606081019160208094019060005b818110610ef3575050508281830391015281808451928381520193019160005b828110610edf575050505090565b835185529381019392810192600101610ed1565b82516001600160a01b031685529385019391850191600101610eb1565b60005b838110610f235750506000910152565b8181015183820152602001610f13565b601492916001600160601b03199060601b168152610f5a8251809360208685019101610f10565b010190565b60405190610f6c82610252565b6002825261060f60f31b6020830152565b919082604091031261000e576020825192015190565b90602091610fac81518092818552858086019101610f10565b601f01601f1916010190565b9060606040610fdf9380518452602081015160208501520151918160408201520190610f93565b90565b9261100d610fdf959361ffff61101b941686526001602087015260a0604087015260a0860190610f93565b908482036060860152610f93565b916080818403910152610fb8565b506040513d6000823e3d90fd5b60409081810192611063610ac461104f865161ffff1690565b61ffff166000526001602052604060002090565b6001600160a01b039490929085841615611372578151855163068bcd8d60e01b815260048101919091526020929190879084816024817f000000000000000000000000000000000000000000000000000000000000000086165afa908115611365575b600091611348575b501696871561132d57836004988851998a8092637e062a3560e11b82525afa978815611320575b6000986112f1575b50600095865b60a08501518051891015611130576001916111218a611128936113b8565b51906113f9565b970196611103565b50965091939690929497836111bf91169388870194611152865130338461148e565b8551845163095ea7b360e01b81527f00000000000000000000000000000000000000000000000000000000000000006001600160a01b0381166004830152602482019290925290918b90829060449082906000905af180156112e4575b6112b7575b5016945161ffff1690565b94611213815193611256606084015196519a60c0850151926111df6102ad565b9384526000828501526111f0610f5f565b8785015286519485918383016014916001600160601b03199060601b1681520190565b0390611227601f199283810187528661026d565b61124560a0608088015197015196610b3e8951988992858401610e95565b610b5b875196879233908401610f33565b863b1561000e5760009861128194519a8b998a9889986327efc43f60e21b8a52339260048b01611426565b039134905af180156112aa575b6112955750565b806112a26112a892610232565b8061052f565b565b6112b2611029565b61128e565b6112d6908b3d8d116112dd575b6112ce818361026d565b81019061140e565b50386111b4565b503d6112c4565b6112ec611029565b6111af565b611312919850843d8611611319575b61130a818361026d565b8101906113a3565b96386110fd565b503d611300565b611328611029565b6110f5565b825187516302ad881560e41b81526004810191909152602490fd5b61135f9150853d87116113195761130a818361026d565b386110ce565b61136d611029565b6110c6565b84611382610c45925161ffff1690565b90516315fe4c1560e01b815261ffff90911660048201529081906024820190565b9081602091031261000e5751610fdf8161017e565b80518210156113cc5760209160051b010190565b634e487b7160e01b600052603260045260246000fd5b50634e487b7160e01b600052601160045260246000fd5b9190820180921161140657565b6112a86113e2565b9081602091031261000e5751801515810361000e5790565b97949093610fdf99979361147f979361ffff61147197168b5260208b015260408a015260018060a01b03166060890152608088015260a08701526101208060c0880152860190610fb8565b9084820360e0860152610f93565b91610100818403910152610f93565b6040516323b872dd60e01b60208201526001600160a01b0392831660248201529290911660448301526064808301939093529181526112a89160a082018281106001600160401b038211176114e6575b6040526114f3565b6114ee61021b565b6114de565b604051611570916001600160a01b031661150c82610252565b6000806020958685527f5361666545524332303a206c6f772d6c6576656c2063616c6c206661696c656487860152868151910182855af13d156115ec573d9161155483610d11565b92611562604051948561026d565b83523d60008785013e6115f0565b8051908161157d57505050565b828061158d93830101910161140e565b156115955750565b6084906040519062461bcd60e51b82526004820152602a60248201527f5361666545524332303a204552433230206f7065726174696f6e20646964206e6044820152691bdd081cdd58d8d9595960b21b6064820152fd5b6060915b919290156116525750815115611604575090565b3b1561160d5790565b60405162461bcd60e51b815260206004820152601d60248201527f416464726573733a2063616c6c20746f206e6f6e2d636f6e74726163740000006044820152606490fd5b8251909150156116655750805190602001fd5b60405162461bcd60e51b815260206004820152908190610c45906024830190610f93565b9060141161000e5790601490565b909291928360141161000e57831161000e57601401916013190190565b6bffffffffffffffffffffffff1990358181169392601481106116d657505050565b60140360031b82901b16169150565b61ffff90911681526001600160a01b03918216602082015291811660408301529091166060820152608081019190915260c060a08201819052610fdf92910190610f93565b93909261175b92610fdf9694865260018060a01b03166020860152604085015260a0606085015260a0840190610f93565b916080818403910152610f93565b81604051928392833781016000815203902090565b9284926080959260018060a01b03168552602085015260606040850152816060850152848401376000828201840152601f01601f1916010190565b81601f8201121561000e578051916117d0836102cc565b926117de604051948561026d565b808452602092838086019260051b82010192831161000e578301905b828210611808575050505090565b815181529083019083016117fa565b91909160408184031261000e578051926001600160401b039384811161000e5782019381601f8601121561000e578451611850816102cc565b9061185e604051928361026d565b808252602096878084019260051b8201019185831161000e5788809201905b83821061189d57505050509483015190811161000e57610fdf92016117b9565b82809183516118ab8161017e565b81520191019061187d565b9190820391821161140657565b95908551966118da60208089019989010189611817565b9490966000998a5b89518c101561192b576119238c60019261191e8d8d6119116107378f87611908916113b8565b519687946113b8565b90878060a01b03166119c5565b6113f9565b9b019a6118e2565b61ffff969b5061199d9499507ff054e53463d5a0a197186fcded2dd1cc741eef0502a71c18695d26de2af3da0397509990919294998381106119a2575b50519020604080516001600160a01b039889168152602081019390935282015291851696909416949091169281906060820190565b0390a4565b6119af6119bf91856118b6565b866001600160a01b038b166119c5565b38611968565b60405163a9059cbb60e01b60208201526001600160a01b03909216602483015260448201929092526112a8916119fe82606481016108e6565b6114f3565b90604051606081018181106001600160401b03821117611a44575b60405260406002829460018060a01b038154168452600181015460208501520154910152565b611a4c61021b565b611a1e565b909291600080916040519560c087018781106001600160401b03821117611aad575b6040526096875282602088019560a036883760208451940192f1903d9060968211611aa4575b6000908286523e9190565b60969150611a99565b611ab561021b565b611a7356fea264697066735822122039298c3c492bf3e00cedf7c91eb0253b13dc98c1747e754a3a5d95e5d5f1ea4a64736f6c63430008110033",
  "devdoc": {
    "kind": "dev",
    "methods": {
      "owner()": {
        "details": "Returns the address of the current owner."
      },
      "renounceOwnership()": {
        "details": "Leaves the contract without owner. It will not be possible to call `onlyOwner` functions anymore. Can only be called by the current owner. NOTE: Renouncing ownership will leave the contract without an owner, thereby removing any functionality that is only available to the owner."
      },
      "transferOwnership(address)": {
        "details": "Transfers ownership of the contract to a new account (`newOwner`). Can only be called by the current owner."
      }
    },
    "version": 1
  },
  "userdoc": {
    "kind": "user",
    "methods": {},
    "version": 1
  },
  "storageLayout": {
    "storage": [
      {
        "astId": 7,
        "contract": "contracts/OmniDisperse.sol:OmniDisperse",
        "label": "_owner",
        "offset": 0,
        "slot": "0",
        "type": "t_address"
      },
      {
        "astId": 1962,
        "contract": "contracts/OmniDisperse.sol:OmniDisperse",
        "label": "dstAddress",
        "offset": 0,
        "slot": "1",
        "type": "t_mapping(t_uint16,t_address)"
      },
      {
        "astId": 1973,
        "contract": "contracts/OmniDisperse.sol:OmniDisperse",
        "label": "failedMessages",
        "offset": 0,
        "slot": "2",
        "type": "t_mapping(t_uint16,t_mapping(t_address,t_mapping(t_address,t_mapping(t_uint256,t_struct(FailedMessage)2947_storage))))"
      }
    ],
    "types": {
      "t_address": {
        "encoding": "inplace",
        "label": "address",
        "numberOfBytes": "20"
      },
      "t_bytes32": {
        "encoding": "inplace",
        "label": "bytes32",
        "numberOfBytes": "32"
      },
      "t_mapping(t_address,t_mapping(t_address,t_mapping(t_uint256,t_struct(FailedMessage)2947_storage)))": {
        "encoding": "mapping",
        "key": "t_address",
        "label": "mapping(address => mapping(address => mapping(uint256 => struct IOmniDisperse.FailedMessage)))",
        "numberOfBytes": "32",
        "value": "t_mapping(t_address,t_mapping(t_uint256,t_struct(FailedMessage)2947_storage))"
      },
      "t_mapping(t_address,t_mapping(t_uint256,t_struct(FailedMessage)2947_storage))": {
        "encoding": "mapping",
        "key": "t_address",
        "label": "mapping(address => mapping(uint256 => struct IOmniDisperse.FailedMessage))",
        "numberOfBytes": "32",
        "value": "t_mapping(t_uint256,t_struct(FailedMessage)2947_storage)"
      },
      "t_mapping(t_uint16,t_address)": {
        "encoding": "mapping",
        "key": "t_uint16",
        "label": "mapping(uint16 => address)",
        "numberOfBytes": "32",
        "value": "t_address"
      },
      "t_mapping(t_uint16,t_mapping(t_address,t_mapping(t_address,t_mapping(t_uint256,t_struct(FailedMessage)2947_storage))))": {
        "encoding": "mapping",
        "key": "t_uint16",
        "label": "mapping(uint16 => mapping(address => mapping(address => mapping(uint256 => struct IOmniDisperse.FailedMessage))))",
        "numberOfBytes": "32",
        "value": "t_mapping(t_address,t_mapping(t_address,t_mapping(t_uint256,t_struct(FailedMessage)2947_storage)))"
      },
      "t_mapping(t_uint256,t_struct(FailedMessage)2947_storage)": {
        "encoding": "mapping",
        "key": "t_uint256",
        "label": "mapping(uint256 => struct IOmniDisperse.FailedMessage)",
        "numberOfBytes": "32",
        "value": "t_struct(FailedMessage)2947_storage"
      },
      "t_struct(FailedMessage)2947_storage": {
        "encoding": "inplace",
        "label": "struct IOmniDisperse.FailedMessage",
        "members": [
          {
            "astId": 2942,
            "contract": "contracts/OmniDisperse.sol:OmniDisperse",
            "label": "token",
            "offset": 0,
            "slot": "0",
            "type": "t_address"
          },
          {
            "astId": 2944,
            "contract": "contracts/OmniDisperse.sol:OmniDisperse",
            "label": "amountLD",
            "offset": 0,
            "slot": "1",
            "type": "t_uint256"
          },
          {
            "astId": 2946,
            "contract": "contracts/OmniDisperse.sol:OmniDisperse",
            "label": "paramsHash",
            "offset": 0,
            "slot": "2",
            "type": "t_bytes32"
          }
        ],
        "numberOfBytes": "96"
      },
      "t_uint16": {
        "encoding": "inplace",
        "label": "uint16",
        "numberOfBytes": "2"
      },
      "t_uint256": {
        "encoding": "inplace",
        "label": "uint256",
        "numberOfBytes": "32"
      }
    }
  }
}