{
  "address": "0xAdaA223f9D5833C204a46E0C07B50199eD59586f",
  "abi": [
    {
      "inputs": [
        {
          "internalType": "address",
          "name": "_router",
          "type": "address"
        }
      ],
      "stateMutability": "nonpayable",
      "type": "constructor"
    },
    {
      "inputs": [
        {
          "internalType": "uint16",
          "name": "chainId",
          "type": "uint16"
        }
      ],
      "name": "DstChainNotFound",
      "type": "error"
    },
    {
      "inputs": [],
      "name": "Forbidden",
      "type": "error"
    },
    {
      "inputs": [],
      "name": "InvalidPayload",
      "type": "error"
    },
    {
      "inputs": [
        {
          "internalType": "uint256",
          "name": "poolId",
          "type": "uint256"
        }
      ],
      "name": "PoolNotFound",
      "type": "error"
    },
    {
      "inputs": [
        {
          "internalType": "bytes",
          "name": "reason",
          "type": "bytes"
        }
      ],
      "name": "SwapFailure",
      "type": "error"
    },
    {
      "inputs": [
        {
          "internalType": "bytes",
          "name": "reason",
          "type": "bytes"
        }
      ],
      "name": "SwapFailure",
      "type": "error"
    },
    {
      "anonymous": false,
      "inputs": [
        {
          "indexed": true,
          "internalType": "address",
          "name": "srcFrom",
          "type": "address"
        },
        {
          "indexed": true,
          "internalType": "address",
          "name": "to",
          "type": "address"
        },
        {
          "indexed": false,
          "internalType": "bytes",
          "name": "data",
          "type": "bytes"
        },
        {
          "indexed": false,
          "internalType": "bytes",
          "name": "reason",
          "type": "bytes"
        }
      ],
      "name": "CallFailure",
      "type": "event"
    },
    {
      "anonymous": false,
      "inputs": [
        {
          "indexed": true,
          "internalType": "address",
          "name": "previousOwner",
          "type": "address"
        },
        {
          "indexed": true,
          "internalType": "address",
          "name": "newOwner",
          "type": "address"
        }
      ],
      "name": "OwnershipTransferred",
      "type": "event"
    },
    {
      "anonymous": false,
      "inputs": [
        {
          "indexed": true,
          "internalType": "uint16",
          "name": "srcChainId",
          "type": "uint16"
        },
        {
          "indexed": true,
          "internalType": "bytes",
          "name": "srcAddress",
          "type": "bytes"
        },
        {
          "indexed": true,
          "internalType": "uint256",
          "name": "nonce",
          "type": "uint256"
        },
        {
          "indexed": false,
          "internalType": "address",
          "name": "token",
          "type": "address"
        },
        {
          "indexed": false,
          "internalType": "uint256",
          "name": "amountLD",
          "type": "uint256"
        },
        {
          "indexed": false,
          "internalType": "bytes",
          "name": "payload",
          "type": "bytes"
        }
      ],
      "name": "SGReceive",
      "type": "event"
    },
    {
      "anonymous": false,
      "inputs": [
        {
          "indexed": true,
          "internalType": "uint16",
          "name": "dstChainId",
          "type": "uint16"
        },
        {
          "indexed": true,
          "internalType": "address",
          "name": "dstAddress",
          "type": "address"
        }
      ],
      "name": "UpdateDstAddress",
      "type": "event"
    },
    {
      "inputs": [
        {
          "internalType": "uint16",
          "name": "",
          "type": "uint16"
        }
      ],
      "name": "dstAddress",
      "outputs": [
        {
          "internalType": "address",
          "name": "",
          "type": "address"
        }
      ],
      "stateMutability": "view",
      "type": "function"
    },
    {
      "inputs": [
        {
          "internalType": "uint16",
          "name": "dstChainId",
          "type": "uint16"
        },
        {
          "internalType": "address",
          "name": "dstCallTo",
          "type": "address"
        },
        {
          "internalType": "bytes",
          "name": "dstCallData",
          "type": "bytes"
        },
        {
          "internalType": "uint256",
          "name": "dstGasForCall",
          "type": "uint256"
        },
        {
          "internalType": "uint256",
          "name": "dstNativeAmount",
          "type": "uint256"
        },
        {
          "internalType": "address",
          "name": "from",
          "type": "address"
        }
      ],
      "name": "estimateFee",
      "outputs": [
        {
          "internalType": "uint256",
          "name": "",
          "type": "uint256"
        }
      ],
      "stateMutability": "view",
      "type": "function"
    },
    {
      "inputs": [],
      "name": "factory",
      "outputs": [
        {
          "internalType": "address",
          "name": "",
          "type": "address"
        }
      ],
      "stateMutability": "view",
      "type": "function"
    },
    {
      "inputs": [],
      "name": "owner",
      "outputs": [
        {
          "internalType": "address",
          "name": "",
          "type": "address"
        }
      ],
      "stateMutability": "view",
      "type": "function"
    },
    {
      "inputs": [],
      "name": "renounceOwnership",
      "outputs": [],
      "stateMutability": "nonpayable",
      "type": "function"
    },
    {
      "inputs": [],
      "name": "router",
      "outputs": [
        {
          "internalType": "address",
          "name": "",
          "type": "address"
        }
      ],
      "stateMutability": "view",
      "type": "function"
    },
    {
      "inputs": [
        {
          "internalType": "uint16",
          "name": "srcChainId",
          "type": "uint16"
        },
        {
          "internalType": "bytes",
          "name": "srcAddress",
          "type": "bytes"
        },
        {
          "internalType": "uint256",
          "name": "nonce",
          "type": "uint256"
        },
        {
          "internalType": "address",
          "name": "token",
          "type": "address"
        },
        {
          "internalType": "uint256",
          "name": "amountLD",
          "type": "uint256"
        },
        {
          "internalType": "bytes",
          "name": "payload",
          "type": "bytes"
        }
      ],
      "name": "sgReceive",
      "outputs": [],
      "stateMutability": "nonpayable",
      "type": "function"
    },
    {
      "inputs": [
        {
          "internalType": "address",
          "name": "token",
          "type": "address"
        },
        {
          "internalType": "uint256",
          "name": "amount",
          "type": "uint256"
        },
        {
          "components": [
            {
              "internalType": "address",
              "name": "swapTo",
              "type": "address"
            },
            {
              "internalType": "bytes",
              "name": "swapData",
              "type": "bytes"
            },
            {
              "internalType": "uint256",
              "name": "poolId",
              "type": "uint256"
            },
            {
              "internalType": "uint256",
              "name": "amount",
              "type": "uint256"
            },
            {
              "internalType": "uint16",
              "name": "dstChainId",
              "type": "uint16"
            },
            {
              "internalType": "uint256",
              "name": "dstPoolId",
              "type": "uint256"
            },
            {
              "internalType": "uint256",
              "name": "dstMinAmount",
              "type": "uint256"
            },
            {
              "internalType": "address",
              "name": "dstCallTo",
              "type": "address"
            },
            {
              "internalType": "bytes",
              "name": "dstCallData",
              "type": "bytes"
            },
            {
              "internalType": "uint256",
              "name": "dstGasForCall",
              "type": "uint256"
            },
            {
              "internalType": "uint256",
              "name": "dstNativeAmount",
              "type": "uint256"
            }
          ],
          "internalType": "struct IStargateProxy.TransferParams",
          "name": "params",
          "type": "tuple"
        }
      ],
      "name": "transferERC20",
      "outputs": [],
      "stateMutability": "payable",
      "type": "function"
    },
    {
      "inputs": [
        {
          "internalType": "uint256",
          "name": "amount",
          "type": "uint256"
        },
        {
          "components": [
            {
              "internalType": "address",
              "name": "swapTo",
              "type": "address"
            },
            {
              "internalType": "bytes",
              "name": "swapData",
              "type": "bytes"
            },
            {
              "internalType": "uint256",
              "name": "poolId",
              "type": "uint256"
            },
            {
              "internalType": "uint256",
              "name": "amount",
              "type": "uint256"
            },
            {
              "internalType": "uint16",
              "name": "dstChainId",
              "type": "uint16"
            },
            {
              "internalType": "uint256",
              "name": "dstPoolId",
              "type": "uint256"
            },
            {
              "internalType": "uint256",
              "name": "dstMinAmount",
              "type": "uint256"
            },
            {
              "internalType": "address",
              "name": "dstCallTo",
              "type": "address"
            },
            {
              "internalType": "bytes",
              "name": "dstCallData",
              "type": "bytes"
            },
            {
              "internalType": "uint256",
              "name": "dstGasForCall",
              "type": "uint256"
            },
            {
              "internalType": "uint256",
              "name": "dstNativeAmount",
              "type": "uint256"
            }
          ],
          "internalType": "struct IStargateProxy.TransferParams",
          "name": "params",
          "type": "tuple"
        }
      ],
      "name": "transferNative",
      "outputs": [],
      "stateMutability": "payable",
      "type": "function"
    },
    {
      "inputs": [
        {
          "internalType": "address",
          "name": "newOwner",
          "type": "address"
        }
      ],
      "name": "transferOwnership",
      "outputs": [],
      "stateMutability": "nonpayable",
      "type": "function"
    },
    {
      "inputs": [
        {
          "internalType": "uint16",
          "name": "dstChainId",
          "type": "uint16"
        },
        {
          "internalType": "address",
          "name": "_dstAddress",
          "type": "address"
        }
      ],
      "name": "updateDstAddress",
      "outputs": [],
      "stateMutability": "nonpayable",
      "type": "function"
    }
  ],
  "transactionHash": "0xb7a4324bcce85b0e242802bf26e0bf77ef11635e9f597ce5398dac5d010b3601",
  "args": [
    "0x95461eF0e0ecabC049a5c4a6B98Ca7B335FAF068"
  ],
  "numDeployments": 4,
  "solcInputHash": "5022ddfe76193fdad5900e1f5084b083",
  "bytecode": "0x60c080604052346200013457620000309062001825803803809162000025828562000139565b833981019062000173565b60008054336001600160a01b03198216811783556040519293602092849260049284926001600160a01b03929083167f8be0079c531659141344cd1fd0a4f28419497f9722a3daafe3b4186f6b6457e08a80a3608081905263c45a015560e01b8352165afa918215620001285791620000f3575b5060a052604051611690908162000195823960805181818160af015281816104cb01528181610c0201528181611264015281816113970152611460015260a05181818161042d01526111dc0152f35b62000119915060203d811162000120575b62000110818362000139565b81019062000173565b38620000a4565b503d62000104565b604051903d90823e3d90fd5b600080fd5b601f909101601f19168101906001600160401b038211908210176200015d57604052565b634e487b7160e01b600052604160045260246000fd5b908160209103126200013457516001600160a01b038116810362000134579056fe608080604052600436101561001357600080fd5b600090813560e01c908163452cdfc514610d1a5750806348b6fbd014610c9c57806359f74e4714610a92578063715018a614610a385780638da5cb5b14610a1157806395db255414610860578063ab8236f31461045c578063c45a015514610417578063cf04e1af146101a7578063f2fde38b146100e15763f887ea401461009a57600080fd5b346100de57806003193601126100de576040517f00000000000000000000000000000000000000000000000000000000000000006001600160a01b03168152602090f35b80fd5b50346100de5760203660031901126100de576100fb610d7b565b610103610dbf565b6001600160a01b0390811690811561015357600054826001600160601b0360a01b821617600055167f8be0079c531659141344cd1fd0a4f28419497f9722a3daafe3b4186f6b6457e0600080a380f35b60405162461bcd60e51b815260206004820152602660248201527f4f776e61626c653a206e6577206f776e657220697320746865207a65726f206160448201526564647265737360d01b6064820152608490fd5b50600319606036820112610413576101bd610d7b565b60249190604435833567ffffffffffffffff821161040f576101608260040194833603011261040f57604080516323b872dd60e01b60208083019190915233888301908152308183015280840185905282900392830182526001600160a01b039586169590949092909161023e916102389060600182610e79565b86610fe7565b8161024887610f05565b1661025d575b8761025a343389611188565b80f35b8761027d6102768961026e8a610f05565b940189610f19565b3691610f68565b60405163095ea7b360e01b8082526001600160a01b03851660048301526024820196909652908682604481868c5af19182156104045783926103e7575b50868151910182855af16102cc610f9f565b90156103bf57506040519283521660048201528585820152818160448189875af180156103b457610387575b508060405180956370a0823160e01b825230600483015281855afa90811561037c578591610347575b5061025a935080610335575b80808061024e565b6103409133906115f8565b388061032d565b905083813d8311610375575b61035d8183610e79565b810103126103705761025a925138610321565b600080fd5b503d610353565b6040513d87823e3d90fd5b6103a690823d84116103ad575b61039e8183610e79565b810190610fcf565b50386102f8565b503d610394565b6040513d88823e3d90fd5b604051630c369d2560e01b8152600481018690529081906103e390828b0190610e9b565b0390fd5b6103fd90883d8a116103ad5761039e8183610e79565b50386102ba565b6040513d85823e3d90fd5b8580fd5b5080fd5b50346100de57806003193601126100de576040517f00000000000000000000000000000000000000000000000000000000000000006001600160a01b03168152602090f35b50346100de5760c03660031901126100de57610476610d54565b67ffffffffffffffff60243581811161085c57610497903690600401610d91565b6001600160a01b0392909190606435808516900361040f5760a43590811161040f576104c7903690600401610d91565b92847f000000000000000000000000000000000000000000000000000000000000000016330361084a5783601411610672578360281161067257601482013560601c6106c6575b6040516370a0823160e01b815230600482015287906020816024816064358b165afa9081156106bb578291610687575b50806105d7575b50927f4798e9efbbc84d88c90c46f86d32ae4d8c033fe3a2021cd045cab33f7102164a9347806105bb575b50508160405192839283378101888152039020936105b560405192839260643516835260843560208401526060604084015261ffff6044359816956060840191611639565b0390a480f35b81808092873560601c5af1506105cf610f9f565b508738610570565b601484013560601c610676576105f781853560601c5b89606435166115f8565b601484013560601c1561054557601484013560601c3b156104135760405163248ff46d60e01b8152606480356001600160a01b03166004830152853560601c60248301526044820192909252908290829081908101038183601489013560601c5af1156105455761066790610e49565b610672578638610545565b8680fd5b6105f781601486013560601c6105ed565b9150506020813d82116106b3575b816106a260209383610e79565b81010312610370578790513861053e565b3d9150610695565b6040513d84823e3d90fd5b6106de608435601484013560601c87606435166115f8565b601482013560601c3b15610672576040516344ab9e6360e01b8152823560601c600482015285606435166024820152608435604482015260806064820152878180610734608482016027198a0160288901611639565b038183601488013560601c5af19081610837575b5061083257610755610f9f565b601483013560601c3b1561082e5760405163248ff46d60e01b8152606480356001600160a01b03166004830152843560601c60248301526084356044830152899190829082908190810103818360148a013560601c5af161081a575b505060405190604082527f7d392e8caca12cdca700dff8a794504e432b8ddb7950261ea7997b9cd6a1b2b66107f160408401602719890160288801611639565b92808403602082015280610812601488013560601c95883560601c95610e9b565b0390a361050e565b61082390610e49565b61082e5787386107b1565b8780fd5b61050e565b61084390989198610e49565b9638610748565b604051631dd2188d60e31b8152600490fd5b8380fd5b506003196040368201126104135760249060043583833567ffffffffffffffff81116104135761016081600401948236030112610413576001600160a01b036108a885610f05565b166109b3575b50503403903482116109a057906108c6913390611188565b47806108d0578280f35b80471061095c578280808093335af16108e7610f9f565b50156108f257808280f35b608490603a6040519162461bcd60e51b8352602060048401528201527f416464726573733a20756e61626c6520746f2073656e642076616c75652c207260448201527f6563697069656e74206d617920686176652072657665727465640000000000006064820152fd5b60405162461bcd60e51b815260206004820152601d818401527f416464726573733a20696e73756666696369656e742062616c616e63650000006044820152606490fd5b634e487b7160e01b845260116004528284fd5b81906109cd610276876109c588610f05565b930187610f19565b9084602083519301915af16109e0610f9f565b90156109ed5784906108ae565b604051630c369d2560e01b8152602060048201529081906103e39082870190610e9b565b50346100de57806003193601126100de57546040516001600160a01b039091168152602090f35b50346100de57806003193601126100de57610a51610dbf565b80546001600160a01b03198116825581906001600160a01b03167f8be0079c531659141344cd1fd0a4f28419497f9722a3daafe3b4186f6b6457e08280a380f35b50346100de576003199060c0368301126100de57610aae610d54565b610ab6610d65565b9060443567ffffffffffffffff811161085c57610ad7903690600401610d91565b946001600160a01b039260a435919084831683036106725761ffff16918287526020976001895260408820549486861615610c835790808a949392604051976001600160601b03199a8b809260601b16888b015260148a52610b388a610e5d565b6040519b8c9660601b16809887015260601b1660348501526048840137810188604882015203602881018752604801610b719087610e79565b604051918883015260148252610b8682610e5d565b60405191610b9383610e17565b60643583526084358984015260408301526040519586948594630a51236960e01b8652600486015260248501600190526044850160a0905260a48501610bd891610e9b565b82858203016064860152610beb91610e9b565b90838203016084840152610bfe91610edb565b03917f00000000000000000000000000000000000000000000000000000000000000001691815a93604094fa918215610c77578092610c42575b5050604051908152f35b9091506040823d604011610c6f575b81610c5e60409383610e79565b810103126100de5750513880610c38565b3d9150610c51565b604051903d90823e3d90fd5b6040516315fe4c1560e01b815260048101869052602490fd5b50346100de5760403660031901126100de57610cb6610d54565b61ffff610cc1610d65565b91610cca610dbf565b1680835260016020526040832080546001600160a01b0319166001600160a01b0390931692831790557f2a00dad3333a840171ea0391ef1a1241e87753bd39154bffbeee262a59a4b09d8380a380f35b9050346104135760203660031901126104135760209161ffff610d3b610d54565b1681526001835260409020546001600160a01b03168152f35b6004359061ffff8216820361037057565b602435906001600160a01b038216820361037057565b600435906001600160a01b038216820361037057565b9181601f840112156103705782359167ffffffffffffffff8311610370576020838186019501011161037057565b6000546001600160a01b03163303610dd357565b606460405162461bcd60e51b815260206004820152602060248201527f4f776e61626c653a2063616c6c6572206973206e6f7420746865206f776e65726044820152fd5b6060810190811067ffffffffffffffff821117610e3357604052565b634e487b7160e01b600052604160045260246000fd5b67ffffffffffffffff8111610e3357604052565b6040810190811067ffffffffffffffff821117610e3357604052565b90601f8019910116810190811067ffffffffffffffff821117610e3357604052565b919082519283825260005b848110610ec7575050826000602080949584010152601f8019910116010190565b602081830181015184830182015201610ea6565b9060606040610f029380518452602081015160208501520151918160408201520190610e9b565b90565b356001600160a01b03811681036103705790565b903590601e1981360301821215610370570180359067ffffffffffffffff82116103705760200191813603831361037057565b67ffffffffffffffff8111610e3357601f01601f191660200190565b929192610f7482610f4c565b91610f826040519384610e79565b829481845281830111610370578281602093846000960137010152565b3d15610fca573d90610fb082610f4c565b91610fbe6040519384610e79565b82523d6000602084013e565b606090565b90816020910312610370575180151581036103705790565b604051611045916001600160a01b031661100082610e5d565b6000806020958685527f5361666545524332303a206c6f772d6c6576656c2063616c6c206661696c656487860152868151910182855af161103f610f9f565b916110c1565b8051908161105257505050565b8280611062938301019101610fcf565b1561106a5750565b6084906040519062461bcd60e51b82526004820152602a60248201527f5361666545524332303a204552433230206f7065726174696f6e20646964206e6044820152691bdd081cdd58d8d9595960b21b6064820152fd5b9192901561112357508151156110d5575090565b3b156110de5790565b60405162461bcd60e51b815260206004820152601d60248201527f416464726573733a2063616c6c20746f206e6f6e2d636f6e74726163740000006044820152606490fd5b8251909150156111365750805190602001fd5b60405162461bcd60e51b8152602060048201529081906103e3906024830190610e9b565b3561ffff811681036103705790565b9081602091031261037057516001600160a01b03811681036103705790565b9291926111976080820161115a565b61ffff16600090815260016020526040812054949092906001600160a01b038616156115d1576040805163068bcd8d60e01b81529084013560048201526020816024817f00000000000000000000000000000000000000000000000000000000000000006001600160a01b03165afa90811561037c5785916115b2575b506001600160a01b03169586156115965760206004969760405197888092637e062a3560e11b82525afa95861561037c578596611565575b5060405163095ea7b360e01b81526001600160a01b037f00000000000000000000000000000000000000000000000000000000000000001660048201526060850135602482015260208180604481010381896001600160a01b038c165af180156103b457611546575b506112c26080850161115a565b906040516001600160601b03198560601b166020820152601481526112e681610e5d565b604051906112f382610e17565b610120870135825261014087013560208301526040820152604051916001600160601b03199060601b1660208301526014825261132f82610e5d565b61133b60e08701610f05565b90611395604861134f6101008a018a610f19565b60405160608b811b6bffffffffffffffffffffffff19908116602084015297901b9096166034870152859181908484013781018b83820152036028810185520183610e79565b7f00000000000000000000000000000000000000000000000000000000000000006001600160a01b03163b1561082e5761ffff92889695949261144c61143961145c9460c06040519c8d9b8c9a8b9a6327efc43f60e21b8c521660048b0152604082013560248b015260a082013560448b015260018060a01b031660648a0152606081013560848a0152013560a488015261012060c4880152610124870190610edb565b60031993848783030160e4880152610e9b565b9184830301610104850152610e9b565b03917f00000000000000000000000000000000000000000000000000000000000000006001600160a01b03165af180156106bb5761151a575b506040516370a0823160e01b81523060048201526020816024816001600160a01b0387165afa918215610c7757916114e8575b50806114d2575050565b6114e69133906001600160a01b03166115f8565b565b90506020813d602011611512575b8161150360209383610e79565b810103126103705751386114c8565b3d91506114f6565b67ffffffffffffffff81116115325760405238611495565b634e487b7160e01b82526041600452602482fd5b61155e9060203d6020116103ad5761039e8183610e79565b50386112b5565b61158891965060203d60201161158f575b6115808183610e79565b810190611169565b943861124c565b503d611576565b604080516302ad881560e41b8152908501356004820152602490fd5b6115cb915060203d60201161158f576115808183610e79565b38611214565b60246115df6080850161115a565b61ffff604051916315fe4c1560e01b8352166004820152fd5b60405163a9059cbb60e01b60208201526001600160a01b039290921660248301526044808301939093529181526114e691611634606483610e79565b610fe7565b908060209392818452848401376000828201840152601f01601f191601019056fea26469706673582212203ff06dc2abbfbd1189ba0b24fb02ad5392cbeae3aa6e34300606a1e1577c6ac964736f6c63430008110033",
  "devdoc": {
    "kind": "dev",
    "methods": {
      "owner()": {
        "details": "Returns the address of the current owner."
      },
      "renounceOwnership()": {
        "details": "Leaves the contract without owner. It will not be possible to call `onlyOwner` functions anymore. Can only be called by the current owner. NOTE: Renouncing ownership will leave the contract without an owner, thereby removing any functionality that is only available to the owner."
      },
      "transferOwnership(address)": {
        "details": "Transfers ownership of the contract to a new account (`newOwner`). Can only be called by the current owner."
      }
    },
    "version": 1
  },
  "userdoc": {
    "kind": "user",
    "methods": {},
    "version": 1
  },
  "storageLayout": {
    "storage": [
      {
        "astId": 7,
        "contract": "contracts/StargateProxy.sol:StargateProxy",
        "label": "_owner",
        "offset": 0,
        "slot": "0",
        "type": "t_address"
      },
      {
        "astId": 1964,
        "contract": "contracts/StargateProxy.sol:StargateProxy",
        "label": "dstAddress",
        "offset": 0,
        "slot": "1",
        "type": "t_mapping(t_uint16,t_address)"
      }
    ],
    "types": {
      "t_address": {
        "encoding": "inplace",
        "label": "address",
        "numberOfBytes": "20"
      },
      "t_mapping(t_uint16,t_address)": {
        "encoding": "mapping",
        "key": "t_uint16",
        "label": "mapping(uint16 => address)",
        "numberOfBytes": "32",
        "value": "t_address"
      },
      "t_uint16": {
        "encoding": "inplace",
        "label": "uint16",
        "numberOfBytes": "2"
      }
    }
  }
}