{
  "address": "0xCd770265c2a68D789687Da218B0Ae7540bAb44a0",
  "abi": [
    {
      "inputs": [
        {
          "internalType": "address",
          "name": "_sgProxy",
          "type": "address"
        }
      ],
      "stateMutability": "nonpayable",
      "type": "constructor"
    },
    {
      "inputs": [],
      "name": "InsufficientBalance",
      "type": "error"
    },
    {
      "inputs": [],
      "name": "InvalidParams",
      "type": "error"
    },
    {
      "inputs": [],
      "name": "InvalidProxy",
      "type": "error"
    },
    {
      "inputs": [],
      "name": "InvalidSwapData",
      "type": "error"
    },
    {
      "inputs": [],
      "name": "InvalidToken",
      "type": "error"
    },
    {
      "inputs": [
        {
          "internalType": "bytes",
          "name": "reason",
          "type": "bytes"
        }
      ],
      "name": "SwapFailure",
      "type": "error"
    },
    {
      "anonymous": false,
      "inputs": [
        {
          "indexed": true,
          "internalType": "address",
          "name": "token",
          "type": "address"
        },
        {
          "indexed": false,
          "internalType": "address[]",
          "name": "recipients",
          "type": "address[]"
        },
        {
          "indexed": false,
          "internalType": "uint256[]",
          "name": "amounts",
          "type": "uint256[]"
        }
      ],
      "name": "Disperse",
      "type": "event"
    },
    {
      "anonymous": false,
      "inputs": [
        {
          "indexed": true,
          "internalType": "address",
          "name": "token",
          "type": "address"
        },
        {
          "indexed": true,
          "internalType": "address",
          "name": "to",
          "type": "address"
        },
        {
          "indexed": false,
          "internalType": "uint256",
          "name": "amount",
          "type": "uint256"
        }
      ],
      "name": "OnReceiveERC20",
      "type": "event"
    },
    {
      "anonymous": false,
      "inputs": [
        {
          "indexed": true,
          "internalType": "address",
          "name": "srcFrom",
          "type": "address"
        },
        {
          "indexed": true,
          "internalType": "address",
          "name": "token",
          "type": "address"
        },
        {
          "indexed": false,
          "internalType": "uint256",
          "name": "amount",
          "type": "uint256"
        },
        {
          "indexed": false,
          "internalType": "bytes",
          "name": "data",
          "type": "bytes"
        }
      ],
      "name": "SgProxyReceive",
      "type": "event"
    },
    {
      "anonymous": false,
      "inputs": [
        {
          "indexed": true,
          "internalType": "address",
          "name": "token",
          "type": "address"
        },
        {
          "indexed": true,
          "internalType": "address",
          "name": "to",
          "type": "address"
        },
        {
          "indexed": false,
          "internalType": "uint256",
          "name": "amount",
          "type": "uint256"
        }
      ],
      "name": "Withdraw",
      "type": "event"
    },
    {
      "inputs": [
        {
          "internalType": "address",
          "name": "",
          "type": "address"
        },
        {
          "internalType": "address",
          "name": "",
          "type": "address"
        }
      ],
      "name": "balances",
      "outputs": [
        {
          "internalType": "uint256",
          "name": "",
          "type": "uint256"
        }
      ],
      "stateMutability": "view",
      "type": "function"
    },
    {
      "inputs": [
        {
          "components": [
            {
              "internalType": "uint256",
              "name": "amountIn",
              "type": "uint256"
            },
            {
              "internalType": "address",
              "name": "tokenIn",
              "type": "address"
            },
            {
              "internalType": "address",
              "name": "tokenOut",
              "type": "address"
            },
            {
              "internalType": "address",
              "name": "swapTo",
              "type": "address"
            },
            {
              "internalType": "bytes",
              "name": "swapData",
              "type": "bytes"
            },
            {
              "internalType": "address[]",
              "name": "recipients",
              "type": "address[]"
            },
            {
              "internalType": "uint256[]",
              "name": "amounts",
              "type": "uint256[]"
            },
            {
              "internalType": "address",
              "name": "refundAddress",
              "type": "address"
            }
          ],
          "internalType": "struct IDisperse.DisperseParams",
          "name": "params",
          "type": "tuple"
        }
      ],
      "name": "disperse",
      "outputs": [],
      "stateMutability": "nonpayable",
      "type": "function"
    },
    {
      "inputs": [
        {
          "components": [
            {
              "internalType": "uint256",
              "name": "amountIn",
              "type": "uint256"
            },
            {
              "internalType": "address",
              "name": "tokenIn",
              "type": "address"
            },
            {
              "internalType": "address",
              "name": "tokenOut",
              "type": "address"
            },
            {
              "internalType": "address",
              "name": "swapTo",
              "type": "address"
            },
            {
              "internalType": "bytes",
              "name": "swapData",
              "type": "bytes"
            },
            {
              "internalType": "address[]",
              "name": "recipients",
              "type": "address[]"
            },
            {
              "internalType": "uint256[]",
              "name": "amounts",
              "type": "uint256[]"
            },
            {
              "internalType": "address",
              "name": "refundAddress",
              "type": "address"
            }
          ],
          "internalType": "struct IDisperse.DisperseParams",
          "name": "params",
          "type": "tuple"
        }
      ],
      "name": "disperseIntrinsic",
      "outputs": [],
      "stateMutability": "nonpayable",
      "type": "function"
    },
    {
      "inputs": [
        {
          "internalType": "address",
          "name": "token",
          "type": "address"
        },
        {
          "internalType": "address",
          "name": "to",
          "type": "address"
        },
        {
          "internalType": "uint256",
          "name": "amount",
          "type": "uint256"
        }
      ],
      "name": "onReceiveERC20",
      "outputs": [],
      "stateMutability": "nonpayable",
      "type": "function"
    },
    {
      "inputs": [],
      "name": "sgProxy",
      "outputs": [
        {
          "internalType": "address",
          "name": "",
          "type": "address"
        }
      ],
      "stateMutability": "view",
      "type": "function"
    },
    {
      "inputs": [
        {
          "internalType": "address",
          "name": "srcFrom",
          "type": "address"
        },
        {
          "internalType": "address",
          "name": "token",
          "type": "address"
        },
        {
          "internalType": "uint256",
          "name": "amount",
          "type": "uint256"
        },
        {
          "internalType": "bytes",
          "name": "data",
          "type": "bytes"
        }
      ],
      "name": "sgProxyReceive",
      "outputs": [],
      "stateMutability": "nonpayable",
      "type": "function"
    },
    {
      "inputs": [
        {
          "internalType": "address",
          "name": "token",
          "type": "address"
        },
        {
          "internalType": "address",
          "name": "to",
          "type": "address"
        },
        {
          "internalType": "uint256",
          "name": "amount",
          "type": "uint256"
        }
      ],
      "name": "withdraw",
      "outputs": [],
      "stateMutability": "nonpayable",
      "type": "function"
    },
    {
      "stateMutability": "payable",
      "type": "receive"
    }
  ],
  "transactionHash": "0x1c097434e703490926f785f50211c222de7693665bcc1e19577463c54243c718",
  "args": [
    "0x9da9998E93F27562d780eC269A8b65f3299Ee369"
  ],
  "numDeployments": 2,
  "solcInputHash": "6a92ef10e8c41c2f93b3446e73c710fc",
  "bytecode": "0x60a03461007857601f610fe738819003918201601f19168301916001600160401b0383118484101761007d5780849260209460405283398101031261007857516001600160a01b038116810361007857608052604051610f53908161009482396080518181816102e00152818161046001526105280152f35b600080fd5b634e487b7160e01b600052604160045260246000fdfe60806040818152600480361015610021575b505050361561001f57600080fd5b005b600092833560e01c908162e97a1e14610557575080631efc020014610513578063248ff46d1461044157806344ab9e631461026d5780638f41aa6014610162578063c23f001f146101165763d9caed120361001157346101125761008436610667565b9360018060a01b0380931693848752866020528187203388526020528187205486116101045750916020917f9b1bfa7fa9ee420a16e124f794c35ac9f90472acc99140eb2f6447c714cad8eb9385885287845280882033895284528088206100ed8882546107e3565b90556100fa878388610806565b519586521693a380f35b9051631e9acf1760e31b8152fd5b8280fd5b50503461015e578060031936011261015e5780602092610134610627565b61013c61063d565b6001600160a01b03918216835282865283832091168252845220549051908152f35b5080fd5b5091903461015e57610173366105ef565b90602082016001600160a01b0361018982610a5a565b16908335918351906323b872dd60e01b60208301523360248301523060448301528360648301526064825260a0820182811067ffffffffffffffff82111761025a576101f0610247946101eb610235958998956101f8956102579c9b52610861565b610a5a565b948601610a5a565b61020460608701610a5a565b916102516102156080890189610a6e565b96909861023f61022860a0830183610aa1565b98909260c0810190610aa1565b9b909936916106f0565b96369161073f565b9533983691610795565b95610b01565b80f35b634e487b7160e01b885260418952602488fd5b503461011257608036600319011261011257610287610627565b9161029061063d565b906044356064359067ffffffffffffffff9485831161043d573660238401121561043d578281013595808711610439576024840195878501966024880197368911610435576001600160a01b03947f00000000000000000000000000000000000000000000000000000000000000008616330361042757508660a09103126104235761031b81610653565b9061032860448801610653565b98606488013585811161041b5788018160438201121561041b5781816044602461035594013591016106f0565b94608489013581811161041f5789018260438201121561041f57828160446024610382940135910161073f565b9860a481013591821161041f57018160438201121561041b577f306e52e696725536abdc0fb4d86f0b2106da283c10c503b14d71eb0d31f0d3b69a60609988978f93968f978a6103df6103ea988360446024859601359101610795565b951691168c8a610b01565b81885198899788528060208901528701528686013783880185018a905216961694601f01601f19168101030190a380f35b8d80fd5b8e80fd5b8a80fd5b8851632e7973df60e21b8152fd5b8b80fd5b8880fd5b8780fd5b5090346101125761045136610667565b90936001600160a01b039391927f0000000000000000000000000000000000000000000000000000000000000000851633036105045784169384156104f557848752866020528287209516948587526020528186208054918483018093116104e2575055519081527f0ed72cefdd96310ec050a1853b2182f0fcad7eb150d77b40cd9ec741adffd75190602090a380f35b634e487b7160e01b885260119052602487fd5b50905163c1ab6dc160e01b8152fd5b509051632e7973df60e21b8152fd5b50503461015e578160031936011261015e57517f00000000000000000000000000000000000000000000000000000000000000006001600160a01b03168152602090f35b8483853461011257610568366105ef565b803594909260208401916001600160a01b0391908261058685610a5a565b168752866020528487203388526020528487205488116105e357505061025794956101f86101f084610235946105be61024797610a5a565b168a5289602052868a20338b52602052868a206105dc8582546107e3565b9055610a5a565b631e9acf1760e31b8152fd5b60031990602081830112610622576004359167ffffffffffffffff83116106225782610100920301126106225760040190565b600080fd5b600435906001600160a01b038216820361062257565b602435906001600160a01b038216820361062257565b35906001600160a01b038216820361062257565b6060906003190112610622576001600160a01b0390600435828116810361062257916024359081168103610622579060443590565b90601f8019910116810190811067ffffffffffffffff8211176106be57604052565b634e487b7160e01b600052604160045260246000fd5b67ffffffffffffffff81116106be57601f01601f191660200190565b9291926106fc826106d4565b9161070a604051938461069c565b829481845281830111610622578281602093846000960137010152565b67ffffffffffffffff81116106be5760051b60200190565b929161074a82610727565b91610758604051938461069c565b829481845260208094019160051b810192831161062257905b82821061077e5750505050565b83809161078a84610653565b815201910190610771565b92916107a082610727565b916107ae604051938461069c565b829481845260208094019160051b810192831161062257905b8282106107d45750505050565b813581529083019083016107c7565b919082039182116107f057565b634e487b7160e01b600052601160045260246000fd5b60405163a9059cbb60e01b60208201526001600160a01b039290921660248301526044808301939093529181526108479161084260648361069c565b610861565b565b90816020910312610622575180151581036106225790565b60408051908101916001600160a01b031667ffffffffffffffff8311828410176106be576108d1926040526000806020958685527f5361666545524332303a206c6f772d6c6576656c2063616c6c206661696c656487860152868151910182855af16108cb61094d565b9161097d565b805190816108de57505050565b82806108ee938301019101610849565b156108f65750565b6084906040519062461bcd60e51b82526004820152602a60248201527f5361666545524332303a204552433230206f7065726174696f6e20646964206e6044820152691bdd081cdd58d8d9595960b21b6064820152fd5b3d15610978573d9061095e826106d4565b9161096c604051938461069c565b82523d6000602084013e565b606090565b919290156109df5750815115610991575090565b3b1561099a5790565b60405162461bcd60e51b815260206004820152601d60248201527f416464726573733a2063616c6c20746f206e6f6e2d636f6e74726163740000006044820152606490fd5b8251909150156109f25750805190602001fd5b60405162461bcd60e51b815260206004820152908190610a16906024830190610a1a565b0390fd5b919082519283825260005b848110610a46575050826000602080949584010152601f8019910116010190565b602081830181015184830182015201610a25565b356001600160a01b03811681036106225790565b903590601e1981360301821215610622570180359067ffffffffffffffff82116106225760200191813603831361062257565b903590601e1981360301821215610622570180359067ffffffffffffffff821161062257602001918160051b3603831361062257565b8051821015610aeb5760209160051b010190565b634e487b7160e01b600052603260045260246000fd5b94939190959284519584518703610e30576001600160a01b039788948386169283610c68575b5050505050168015600014610b93575060005b838110610b5c57505050505b479081610b5257505050565b6108479216610e42565b80610b6960019284610ad7565b5180610b77575b5001610b3a565b610b8d9087610b868488610ad7565b5116610e42565b38610b70565b92919060005b838110610c3057505050506040516370a0823160e01b8152306004820152602081602481855afa908115610c2457600091610bf0575b508381610bdf575b505050610b46565b610be892610806565b388083610bd7565b906020823d8211610c1c575b81610c096020938361069c565b81010312610c1957505138610bcf565b80fd5b3d9150610bfc565b6040513d6000823e3d90fd5b80610c3d60019284610ad7565b5180610c4b575b5001610b99565b610c629088610c5a8488610ad7565b511688610806565b38610c44565b6040805163095ea7b360e01b8082526001600160a01b038816600483015260248201959095529697919091169590946020946000949390929091908681604481898d5af18015610e2657918693918493610e09575b50828883519301915af1610ccf61094d565b9015610de7575084519182526004820152816024820152828160448185895af18015610ddd57908a969594939291610db0575b508585168403610d13575b80610b27565b82516370a0823160e01b815230600482015294955092939192908083602481885afa938415610da55750908995949392918193610d6c575b5050508881610d5b575b81610d0d565b610d6492610806565b388088610d55565b829495965080929193503d8311610d9e575b610d88818361069c565b81010312610c1957509086929151388080610d4b565b503d610d7e565b51913d9150823e3d90fd5b610dcf90833d8511610dd6575b610dc7818361069c565b810190610849565b5038610d02565b503d610dbd565b84513d84823e3d90fd5b84610a168751928392630c369d2560e01b845260048401526024830190610a1a565b610e1f90893d8b11610dd657610dc7818361069c565b5038610cbd565b88513d88823e3d90fd5b604051635435b28960e11b8152600490fd5b814710610ed8576000918291829182916001600160a01b03165af1610e6561094d565b5015610e6d57565b60405162461bcd60e51b815260206004820152603a60248201527f416464726573733a20756e61626c6520746f2073656e642076616c75652c207260448201527f6563697069656e74206d617920686176652072657665727465640000000000006064820152608490fd5b60405162461bcd60e51b815260206004820152601d60248201527f416464726573733a20696e73756666696369656e742062616c616e63650000006044820152606490fdfea26469706673582212204a45f06af09fccec6c6efc0de4114082d184909b30d0cb003a163a4e394e5e8a64736f6c63430008110033",
  "devdoc": {
    "kind": "dev",
    "methods": {},
    "version": 1
  },
  "userdoc": {
    "kind": "user",
    "methods": {},
    "version": 1
  },
  "storageLayout": {
    "storage": [
      {
        "astId": 1493,
        "contract": "contracts/Disperse.sol:Disperse",
        "label": "balances",
        "offset": 0,
        "slot": "0",
        "type": "t_mapping(t_address,t_mapping(t_address,t_uint256))"
      }
    ],
    "types": {
      "t_address": {
        "encoding": "inplace",
        "label": "address",
        "numberOfBytes": "20"
      },
      "t_mapping(t_address,t_mapping(t_address,t_uint256))": {
        "encoding": "mapping",
        "key": "t_address",
        "label": "mapping(address => mapping(address => uint256))",
        "numberOfBytes": "32",
        "value": "t_mapping(t_address,t_uint256)"
      },
      "t_mapping(t_address,t_uint256)": {
        "encoding": "mapping",
        "key": "t_address",
        "label": "mapping(address => uint256)",
        "numberOfBytes": "32",
        "value": "t_uint256"
      },
      "t_uint256": {
        "encoding": "inplace",
        "label": "uint256",
        "numberOfBytes": "32"
      }
    }
  }
}