{
  "address": "0x48F5579192550290c4Fe832F9FaB3109200ce073",
  "abi": [
    {
      "inputs": [],
      "name": "Exploited",
      "type": "error"
    },
    {
      "inputs": [],
      "name": "InsufficientBalance",
      "type": "error"
    },
    {
      "inputs": [],
      "name": "InvalidParams",
      "type": "error"
    },
    {
      "inputs": [],
      "name": "InvalidToken",
      "type": "error"
    },
    {
      "inputs": [
        {
          "internalType": "address",
          "name": "",
          "type": "address"
        },
        {
          "internalType": "address",
          "name": "",
          "type": "address"
        }
      ],
      "name": "balances",
      "outputs": [
        {
          "internalType": "uint256",
          "name": "",
          "type": "uint256"
        }
      ],
      "stateMutability": "view",
      "type": "function"
    },
    {
      "inputs": [
        {
          "components": [
            {
              "internalType": "address",
              "name": "tokenIn",
              "type": "address"
            },
            {
              "internalType": "address",
              "name": "tokenOut",
              "type": "address"
            },
            {
              "internalType": "address",
              "name": "swapTo",
              "type": "address"
            },
            {
              "internalType": "bytes",
              "name": "swapData",
              "type": "bytes"
            },
            {
              "internalType": "address[]",
              "name": "recipients",
              "type": "address[]"
            },
            {
              "internalType": "uint256[]",
              "name": "amounts",
              "type": "uint256[]"
            },
            {
              "internalType": "address",
              "name": "refundAddress",
              "type": "address"
            }
          ],
          "internalType": "struct IDisperse.DisperseParams",
          "name": "params",
          "type": "tuple"
        }
      ],
      "name": "disperse",
      "outputs": [],
      "stateMutability": "nonpayable",
      "type": "function"
    },
    {
      "inputs": [
        {
          "components": [
            {
              "internalType": "address",
              "name": "tokenIn",
              "type": "address"
            },
            {
              "internalType": "address",
              "name": "tokenOut",
              "type": "address"
            },
            {
              "internalType": "address",
              "name": "swapTo",
              "type": "address"
            },
            {
              "internalType": "bytes",
              "name": "swapData",
              "type": "bytes"
            },
            {
              "internalType": "address[]",
              "name": "recipients",
              "type": "address[]"
            },
            {
              "internalType": "uint256[]",
              "name": "amounts",
              "type": "uint256[]"
            },
            {
              "internalType": "address",
              "name": "refundAddress",
              "type": "address"
            }
          ],
          "internalType": "struct IDisperse.DisperseParams",
          "name": "params",
          "type": "tuple"
        }
      ],
      "name": "disperseIntrinsic",
      "outputs": [],
      "stateMutability": "nonpayable",
      "type": "function"
    },
    {
      "inputs": [
        {
          "internalType": "address",
          "name": "token",
          "type": "address"
        },
        {
          "internalType": "address",
          "name": "to",
          "type": "address"
        },
        {
          "internalType": "uint256",
          "name": "amount",
          "type": "uint256"
        }
      ],
      "name": "onReceiveERC20",
      "outputs": [],
      "stateMutability": "nonpayable",
      "type": "function"
    },
    {
      "inputs": [
        {
          "internalType": "address",
          "name": "token",
          "type": "address"
        },
        {
          "internalType": "address",
          "name": "to",
          "type": "address"
        },
        {
          "internalType": "uint256",
          "name": "amount",
          "type": "uint256"
        }
      ],
      "name": "withdraw",
      "outputs": [],
      "stateMutability": "nonpayable",
      "type": "function"
    },
    {
      "stateMutability": "payable",
      "type": "receive"
    }
  ],
  "transactionHash": "0x59391068f39b43d1fa764b32e1bb9faa3c9d1a6b04066beaca31ce15fb91db70",
  "args": [],
  "numDeployments": 1,
  "solcInputHash": "922311866daec46e5264cae60d6c8bf1",
  "bytecode": "0x6080806040523461001657610cfb908161001c8239f35b600080fdfe60406080815260049081361015610020575b5050361561001e57600080fd5b005b600090813560e01c806302c3f34914610226578063248ff46d146101ce578063c23f001f14610176578063c778aec2146100d85763d9caed12146100645750610011565b346100d457610072366103f5565b92909160018060a01b031690818552846020528085203386526020528085205484116100c557849550816100c295528560205280862033875260205285206100bb84825461044d565b9055610492565b80f35b51631e9acf1760e31b81528590fd5b5080fd5b50346100d4576100e7366103be565b906100fe6100f860a08401846106fc565b9061076c565b906001600160a01b0361011084610732565b16908051926323b872dd60e01b602085015233602485015230604485015260648401526064835260a083019083821067ffffffffffffffff83111761016357526100c2929161015e916104fc565b6107d8565b634e487b7160e01b865260418752602486fd5b5082346101ca57816003193601126101ca576001600160a01b039035818116908190036101c6576024359182168092036101c6579282916020948252818552828220908252845220549051908152f35b8380fd5b8280fd5b50346100d4576101dd366103f5565b92916001600160a01b039081168015610216578561021195969750528560205282862091168552602052832091825461042a565b905580f35b835163c1ab6dc160e01b81528790fd5b508290346101ca57610237366103be565b6102476100f860a08301836106fc565b906001600160a01b03908161025b82610732565b16865260209086825284872033885282528487205484116103ae578261028082610732565b168752868252848720338852825284872061029c85825461044d565b9055826102a882610732565b169285519183836024816370a0823160e01b98898252308d8301525afa9283156103a457908492918a9461036c575b50806102e56102ea926107d8565b610732565b169360248751809681938252308b8301525afa91821561036257879261032c575b50610316925061044d565b1161031f578280f35b5163065ba77960e01b8152fd5b90915082813d831161035b575b610343818361045a565b81010312610357576103169151908761030b565b8580fd5b503d610339565b85513d89823e3d90fd5b8381949295503d831161039d575b610384818361045a565b81010312610399576102ea84925193906102d7565b8880fd5b503d61037a565b87513d8b823e3d90fd5b8451631e9acf1760e31b81528690fd5b600319906020818301126103f0576004359167ffffffffffffffff83116103f0578260e0920301126103f05760040190565b600080fd5b60609060031901126103f0576001600160a01b039060043582811681036103f0579160243590811681036103f0579060443590565b9190820180921161043757565b634e487b7160e01b600052601160045260246000fd5b9190820391821161043757565b90601f8019910116810190811067ffffffffffffffff82111761047c57604052565b634e487b7160e01b600052604160045260246000fd5b60405163a9059cbb60e01b60208201526001600160a01b039092166024830152604480830193909352918152608081019167ffffffffffffffff83118284101761047c576104e2926040526104fc565b565b908160209103126103f0575180151581036103f05790565b60408051908101916001600160a01b031667ffffffffffffffff83118284101761047c5761056c926040526000806020958685527f5361666545524332303a206c6f772d6c6576656c2063616c6c206661696c656487860152868151910182855af16105666105e8565b91610628565b8051908161057957505050565b82806105899383010191016104e4565b156105915750565b6084906040519062461bcd60e51b82526004820152602a60248201527f5361666545524332303a204552433230206f7065726174696f6e20646964206e6044820152691bdd081cdd58d8d9595960b21b6064820152fd5b3d15610623573d9067ffffffffffffffff821161047c5760405191610617601f8201601f19166020018461045a565b82523d6000602084013e565b606090565b9192901561068a575081511561063c575090565b3b156106455790565b60405162461bcd60e51b815260206004820152601d60248201527f416464726573733a2063616c6c20746f206e6f6e2d636f6e74726163740000006044820152606490fd5b82519091501561069d5750805190602001fd5b6040519062461bcd60e51b82528160208060048301528251908160248401526000935b8285106106e3575050604492506000838284010152601f80199101168101030190fd5b84810182015186860160440152938101938593506106c0565b903590601e19813603018212156103f0570180359067ffffffffffffffff82116103f057602001918160051b360383136103f057565b356001600160a01b03811681036103f05790565b91908110156107565760051b0190565b634e487b7160e01b600052603260045260246000fd5b91906000926000915b80831061078157505050565b90919361079c600191610795878587610746565b359061042a565b94019190610775565b903590601e19813603018212156103f0570180359067ffffffffffffffff82116103f0576020019181360383136103f057565b608081016107e681836106fc565b905060a08301916107f783856106fc565b90508203610bd8576001600160a01b0392602060008682018661081982610732565b16610b5e575b6060880161082d818a6107a5565b90506109f0575b508661083f82610732565b166108c25750505060005b83811061087757505050505b47908161086257505050565b61087160c06104e29401610732565b16610bea565b808061088f600193610889868b6106fc565b90610746565b35878987836108a4575b50505050500161084a565b6108b8946108896102e592610871946106fc565b8038878987610899565b9260009897969592989491945b8381106109985750505050602486846108e784610732565b16604051928380926370a0823160e01b82523060048301525afa96871561098c5760009761095b575b50509482939495828211610928575b50505050610856565b6109529361093861094c92610732565b169261094660c08801610732565b9261044d565b91610492565b8038808061091f565b81813d8311610985575b61096f818361045a565b81010312610981575195508238610910565b8680fd5b503d610965565b6040513d6000823e3d90fd5b80856109aa600193610889868d6106fc565b358a868b85846109c1575b505050505050016108cf565b6108896109df936102e5936109d86109e599610732565b16956106fc565b90610492565b85388a868b856109b5565b876109fa8a610732565b1690604091828b0190868b6044610a1085610732565b87519485938492636eb1769f60e11b84523060048501521660248301525afa908115610b1a57908c94939291600091610b25575b5015610a85575b916000610a64819593610a5e8396610732565b946107a5565b8093519384928337810182815203925af150610a7e6105e8565b5038610834565b909192610a928b91610732565b16868b6044610aa085610732565b60008851958694859363095ea7b360e01b8552166004840152811960248401525af18015610b1a57610a646000959294610a5e8f9588978895610aed575b50949650509395505050610a4b565b610b0c908d803d10610b13575b610b04818361045a565b8101906104e4565b5038610ade565b503d610afa565b84513d6000823e3d90fd5b91929394508782813d8311610b57575b610b3f818361045a565b81010312610b545750908b9392915138610a44565b80fd5b503d610b35565b9060248388610b6c85610732565b16604051928380926370a0823160e01b82523060048301525afa918215610bcc578092610b9c575b50509061081f565b9091508382813d8311610bc5575b610bb4818361045a565b81010312610b545750513880610b94565b503d610baa565b604051903d90823e3d90fd5b604051635435b28960e11b8152600490fd5b814710610c80576000918291829182916001600160a01b03165af1610c0d6105e8565b5015610c1557565b60405162461bcd60e51b815260206004820152603a60248201527f416464726573733a20756e61626c6520746f2073656e642076616c75652c207260448201527f6563697069656e74206d617920686176652072657665727465640000000000006064820152608490fd5b60405162461bcd60e51b815260206004820152601d60248201527f416464726573733a20696e73756666696369656e742062616c616e63650000006044820152606490fdfea2646970667358221220909820c06e9afdb6edafa4385d57f99f02f8a54084aa905e9666c6f82f1342e764736f6c63430008110033",
  "devdoc": {
    "kind": "dev",
    "methods": {},
    "version": 1
  },
  "userdoc": {
    "kind": "user",
    "methods": {},
    "version": 1
  },
  "storageLayout": {
    "storage": [
      {
        "astId": 1490,
        "contract": "contracts/Disperse.sol:Disperse",
        "label": "balances",
        "offset": 0,
        "slot": "0",
        "type": "t_mapping(t_address,t_mapping(t_address,t_uint256))"
      }
    ],
    "types": {
      "t_address": {
        "encoding": "inplace",
        "label": "address",
        "numberOfBytes": "20"
      },
      "t_mapping(t_address,t_mapping(t_address,t_uint256))": {
        "encoding": "mapping",
        "key": "t_address",
        "label": "mapping(address => mapping(address => uint256))",
        "numberOfBytes": "32",
        "value": "t_mapping(t_address,t_uint256)"
      },
      "t_mapping(t_address,t_uint256)": {
        "encoding": "mapping",
        "key": "t_address",
        "label": "mapping(address => uint256)",
        "numberOfBytes": "32",
        "value": "t_uint256"
      },
      "t_uint256": {
        "encoding": "inplace",
        "label": "uint256",
        "numberOfBytes": "32"
      }
    }
  }
}