{
  "address": "0xdfA6c0F1236bF34c0856536a3b67eE2e7390C86a",
  "abi": [
    {
      "inputs": [
        {
          "internalType": "address",
          "name": "_router",
          "type": "address"
        }
      ],
      "stateMutability": "nonpayable",
      "type": "constructor"
    },
    {
      "inputs": [
        {
          "internalType": "uint16",
          "name": "chainId",
          "type": "uint16"
        }
      ],
      "name": "DstChainNotFound",
      "type": "error"
    },
    {
      "inputs": [],
      "name": "Forbidden",
      "type": "error"
    },
    {
      "inputs": [],
      "name": "InvalidDstSwapData",
      "type": "error"
    },
    {
      "inputs": [
        {
          "internalType": "uint256",
          "name": "poolId",
          "type": "uint256"
        }
      ],
      "name": "PoolNotFound",
      "type": "error"
    },
    {
      "inputs": [
        {
          "internalType": "bytes",
          "name": "reason",
          "type": "bytes"
        }
      ],
      "name": "SwapFailure",
      "type": "error"
    },
    {
      "anonymous": false,
      "inputs": [
        {
          "indexed": false,
          "internalType": "address",
          "name": "to",
          "type": "address"
        },
        {
          "indexed": false,
          "internalType": "bytes",
          "name": "data",
          "type": "bytes"
        },
        {
          "indexed": false,
          "internalType": "bytes",
          "name": "reason",
          "type": "bytes"
        }
      ],
      "name": "CallFailure",
      "type": "event"
    },
    {
      "anonymous": false,
      "inputs": [
        {
          "indexed": true,
          "internalType": "address",
          "name": "previousOwner",
          "type": "address"
        },
        {
          "indexed": true,
          "internalType": "address",
          "name": "newOwner",
          "type": "address"
        }
      ],
      "name": "OwnershipTransferred",
      "type": "event"
    },
    {
      "anonymous": false,
      "inputs": [
        {
          "indexed": true,
          "internalType": "uint16",
          "name": "srcChainId",
          "type": "uint16"
        },
        {
          "indexed": true,
          "internalType": "bytes",
          "name": "srcAddress",
          "type": "bytes"
        },
        {
          "indexed": true,
          "internalType": "uint256",
          "name": "nonce",
          "type": "uint256"
        },
        {
          "indexed": false,
          "internalType": "address",
          "name": "token",
          "type": "address"
        },
        {
          "indexed": false,
          "internalType": "uint256",
          "name": "amountLD",
          "type": "uint256"
        },
        {
          "indexed": false,
          "internalType": "bytes",
          "name": "payload",
          "type": "bytes"
        }
      ],
      "name": "SGReceive",
      "type": "event"
    },
    {
      "anonymous": false,
      "inputs": [
        {
          "indexed": true,
          "internalType": "uint16",
          "name": "dstChainId",
          "type": "uint16"
        },
        {
          "indexed": true,
          "internalType": "address",
          "name": "dstAddress",
          "type": "address"
        }
      ],
      "name": "UpdateDstAddress",
      "type": "event"
    },
    {
      "inputs": [
        {
          "internalType": "uint16",
          "name": "",
          "type": "uint16"
        }
      ],
      "name": "dstAddress",
      "outputs": [
        {
          "internalType": "address",
          "name": "",
          "type": "address"
        }
      ],
      "stateMutability": "view",
      "type": "function"
    },
    {
      "inputs": [
        {
          "internalType": "uint16",
          "name": "dstChainId",
          "type": "uint16"
        },
        {
          "internalType": "bytes",
          "name": "dstCallData",
          "type": "bytes"
        },
        {
          "internalType": "uint256",
          "name": "dstGasForCall",
          "type": "uint256"
        },
        {
          "internalType": "uint256",
          "name": "dstNativeAmount",
          "type": "uint256"
        },
        {
          "internalType": "address",
          "name": "from",
          "type": "address"
        }
      ],
      "name": "estimateFee",
      "outputs": [
        {
          "internalType": "uint256",
          "name": "",
          "type": "uint256"
        }
      ],
      "stateMutability": "view",
      "type": "function"
    },
    {
      "inputs": [],
      "name": "factory",
      "outputs": [
        {
          "internalType": "address",
          "name": "",
          "type": "address"
        }
      ],
      "stateMutability": "view",
      "type": "function"
    },
    {
      "inputs": [],
      "name": "owner",
      "outputs": [
        {
          "internalType": "address",
          "name": "",
          "type": "address"
        }
      ],
      "stateMutability": "view",
      "type": "function"
    },
    {
      "inputs": [],
      "name": "renounceOwnership",
      "outputs": [],
      "stateMutability": "nonpayable",
      "type": "function"
    },
    {
      "inputs": [],
      "name": "router",
      "outputs": [
        {
          "internalType": "address",
          "name": "",
          "type": "address"
        }
      ],
      "stateMutability": "view",
      "type": "function"
    },
    {
      "inputs": [
        {
          "internalType": "uint16",
          "name": "srcChainId",
          "type": "uint16"
        },
        {
          "internalType": "bytes",
          "name": "srcAddress",
          "type": "bytes"
        },
        {
          "internalType": "uint256",
          "name": "nonce",
          "type": "uint256"
        },
        {
          "internalType": "address",
          "name": "token",
          "type": "address"
        },
        {
          "internalType": "uint256",
          "name": "amountLD",
          "type": "uint256"
        },
        {
          "internalType": "bytes",
          "name": "payload",
          "type": "bytes"
        }
      ],
      "name": "sgReceive",
      "outputs": [],
      "stateMutability": "nonpayable",
      "type": "function"
    },
    {
      "inputs": [
        {
          "internalType": "address",
          "name": "token",
          "type": "address"
        },
        {
          "internalType": "uint256",
          "name": "amount",
          "type": "uint256"
        },
        {
          "components": [
            {
              "internalType": "bytes",
              "name": "swapData",
              "type": "bytes"
            },
            {
              "internalType": "uint256",
              "name": "poolId",
              "type": "uint256"
            },
            {
              "internalType": "uint256",
              "name": "amount",
              "type": "uint256"
            },
            {
              "internalType": "uint16",
              "name": "dstChainId",
              "type": "uint16"
            },
            {
              "internalType": "uint256",
              "name": "dstPoolId",
              "type": "uint256"
            },
            {
              "internalType": "uint256",
              "name": "dstMinAmount",
              "type": "uint256"
            },
            {
              "internalType": "bytes",
              "name": "dstCallData",
              "type": "bytes"
            },
            {
              "internalType": "uint256",
              "name": "dstGasForCall",
              "type": "uint256"
            },
            {
              "internalType": "uint256",
              "name": "dstNativeAmount",
              "type": "uint256"
            }
          ],
          "internalType": "struct IStargateProxy.TransferParams",
          "name": "params",
          "type": "tuple"
        }
      ],
      "name": "transferERC20",
      "outputs": [],
      "stateMutability": "payable",
      "type": "function"
    },
    {
      "inputs": [
        {
          "internalType": "uint256",
          "name": "amount",
          "type": "uint256"
        },
        {
          "components": [
            {
              "internalType": "bytes",
              "name": "swapData",
              "type": "bytes"
            },
            {
              "internalType": "uint256",
              "name": "poolId",
              "type": "uint256"
            },
            {
              "internalType": "uint256",
              "name": "amount",
              "type": "uint256"
            },
            {
              "internalType": "uint16",
              "name": "dstChainId",
              "type": "uint16"
            },
            {
              "internalType": "uint256",
              "name": "dstPoolId",
              "type": "uint256"
            },
            {
              "internalType": "uint256",
              "name": "dstMinAmount",
              "type": "uint256"
            },
            {
              "internalType": "bytes",
              "name": "dstCallData",
              "type": "bytes"
            },
            {
              "internalType": "uint256",
              "name": "dstGasForCall",
              "type": "uint256"
            },
            {
              "internalType": "uint256",
              "name": "dstNativeAmount",
              "type": "uint256"
            }
          ],
          "internalType": "struct IStargateProxy.TransferParams",
          "name": "params",
          "type": "tuple"
        }
      ],
      "name": "transferNative",
      "outputs": [],
      "stateMutability": "payable",
      "type": "function"
    },
    {
      "inputs": [
        {
          "internalType": "address",
          "name": "newOwner",
          "type": "address"
        }
      ],
      "name": "transferOwnership",
      "outputs": [],
      "stateMutability": "nonpayable",
      "type": "function"
    },
    {
      "inputs": [
        {
          "internalType": "uint16",
          "name": "dstChainId",
          "type": "uint16"
        },
        {
          "internalType": "address",
          "name": "_dstAddress",
          "type": "address"
        }
      ],
      "name": "updateDstAddress",
      "outputs": [],
      "stateMutability": "nonpayable",
      "type": "function"
    }
  ],
  "transactionHash": "0xc437cd7d96b1e0df44de2bd39f0dd268fe09dd82b11280d55ca53d778026ede5",
  "args": [
    "0x7612aE2a34E5A363E137De748801FB4c86499152"
  ],
  "numDeployments": 1,
  "solcInputHash": "922311866daec46e5264cae60d6c8bf1",
  "bytecode": "0x60c0806040523462000126576200003090620014ee80380380916200002582856200012b565b833981019062000165565b60008054336001600160a01b03198216811783556040519293602092849260049284926001600160a01b03929083167f8be0079c531659141344cd1fd0a4f28419497f9722a3daafe3b4186f6b6457e08a80a3608081905263c45a015560e01b8352165afa9182156200011a5791620000e5575b5060a052604051611367908162000187823960805181818160b10152818161035d01528181610921015261102d015260a0518181816102b70152610fad0152f35b6200010b915060203d811162000112575b6200010281836200012b565b81019062000165565b38620000a4565b503d620000f6565b604051903d90823e3d90fd5b600080fd5b601f909101601f19168101906001600160401b038211908210176200014f57604052565b634e487b7160e01b600052604160045260246000fd5b908160209103126200012657516001600160a01b038116810362000126579056fe608060408181526004918236101561001657600080fd5b600092833560e01c918263452cdfc514610ab65750816348b6fbd014610a36578163715018a6146109dc5781638da5cb5b146109b4578163a1250130146107c3578163ab8236f3146102e6578163c45a0155146102a2578163da27c07d14610248578163ea4152ca146101ab578163f2fde38b146100e4575063f887ea401461009e57600080fd5b346100e057816003193601126100e057517f00000000000000000000000000000000000000000000000000000000000000006001600160a01b03168152602090f35b5080fd5b9050346101a75760203660031901126101a7576100ff610b06565b90610108610b4a565b6001600160a01b0391821692831561015557505082546001600160a01b0319811683178455167f8be0079c531659141344cd1fd0a4f28419497f9722a3daafe3b4186f6b6457e08380a380f35b906020608492519162461bcd60e51b8352820152602660248201527f4f776e61626c653a206e6577206f776e657220697320746865207a65726f206160448201526564647265737360d01b6064820152fd5b8280fd5b6003199150606036830112610244576101c2610b06565b926044359267ffffffffffffffff84116102405761012090843603011261023c57516323b872dd60e01b6020820152336024808301919091523060448301523560648083019190915281526102399361022f9190610221608483610bf0565b6001600160a01b0316610cb0565b3491339101610f34565b80f35b8480fd5b8580fd5b8380fd5b8360031936810185136100e0576024359067ffffffffffffffff82116101a7576101209082360301126100e057823534039034821161028f57926102399293339101610f34565b634e487b7160e01b835260118452602483fd5b5050346100e057816003193601126100e057517f00000000000000000000000000000000000000000000000000000000000000006001600160a01b03168152602090f35b9050346101a75760c03660031901126101a757610301610af0565b60249182359367ffffffffffffffff948581116107bf576103259036908401610b1c565b606435966001600160a01b039687891693909291848a036107bb5760a4359081116107bb576103579036908801610b1c565b969093897f00000000000000000000000000000000000000000000000000000000000000001633036107ac57876014116107a8578b8161039c8a880160148901610e8a565b8a51636eb1769f60e11b8152308782015291909d169181018290529c60209c8d8f6044818d5afa801561076f578e9f9d9e9d8591610779575b50156106fd575b808d85808e945183850182895af1916103f3610d8a565b92156106a3575b505050519d8e6370a0823160e01b8152308782015285818c5afa908115610699578a8d9e9f9a8d9e819d9e9c8795610661575b50918b939185938997966105a5575b50505050505050505047806104c4575b50505094817f4798e9efbbc84d88c90c46f86d32ae4d8c033fe3a2021cd045cab33f7102164a966060938351928392833781018c8152039020978151958652608435908601528401528160608401526080830137856080848301015260808161ffff604435971694601f80199101168101030190a480f35b809192939495979896504710610563578b808080938a3560601c5af16104e8610d8a565b50156104fb57808895979694939261044c565b845162461bcd60e51b8152918201899052603a908201527f416464726573733a20756e61626c6520746f2073656e642076616c75652c207260448201527f6563697069656e74206d617920686176652072657665727465640000000000006064820152608490fd5b855162461bcd60e51b81528084018b9052601d818401527f416464726573733a20696e73756666696369656e742062616c616e63650000006044820152606490fd5b825163a9059cbb60e01b828201526001600160a01b03881698810198895260208901869052899889966106449561063893919290916105fc91819060400103966105f7601f1998898101845283610bf0565b610cb0565b5163248ff46d60e01b9381019384526001600160a01b039096168c87019081529735606090811c60208a01526040890191909152919685920190565b03908101835282610bf0565b51925af150610651610d8a565b508b81388781808f8d8f9161043c565b959450929b50505082813d8311610692575b61067d8183610bf0565b810103126101a75790518b988b8b8f8b61042d565b503d610673565b8a513d85823e3d90fd5b836060936106e46106f1937fc036d68da21e5be9293413898f2f64fecaa05bddb70e0de0d853852ca7664fe797519687968b88528701526060860190610c12565b9184830390850152610c12565b0390a189388d816103fa565b8a5163095ea7b360e01b8152868101849052600019868201529e9c9d9c8f8b81875a92604493f1801561076f57908e9f9e809e9f8d93610741575b505090506103dc565b8161076092903d10610768575b6107588183610bf0565b810190610c98565b508d38610738565b503d61074e565b8b513d86823e3d90fd5b8e819f92503d83116107a1575b6107908183610bf0565b81010312610244578e9c51386103d5565b503d610786565b8b80fd5b508551631dd2188d60e31b8152fd5b8a80fd5b8680fd5b8383346100e05760031960a0368201126101a7576107df610af0565b9060243567ffffffffffffffff811161023c576107ff9036908701610b1c565b9290916084359660018060a01b039283891689036109b05761ffff169182885260209860018a5287892054968588161561099957918a91838a98979695948951986bffffffffffffffffffffffff19809c60601b16868b015260148a526108658a610bd4565b8a519b8c9460601b168096850152603484013781018b6034820152036014810189526034016108949089610bf0565b8651918b830152601482526108a882610bd4565b8651916108b483610ba2565b60443583526064358c84015287830152865197889687958695630a51236960e01b875286015260248501600190526044850160a0905260a485016108f791610c12565b8285820301606486015261090a91610c12565b9083820301608484015261091d91610c52565b03917f0000000000000000000000000000000000000000000000000000000000000000165afa92831561098e578093610959575b505051908152f35b909180935082813d8311610987575b6109728183610bf0565b81010312610984575051908380610951565b80fd5b503d610968565b8251903d90823e3d90fd5b88516315fe4c1560e01b8152808501869052602490fd5b8780fd5b5050346100e057816003193601126100e057905490516001600160a01b039091168152602090f35b83346109845780600319360112610984576109f5610b4a565b80546001600160a01b03198116825581906001600160a01b03167f8be0079c531659141344cd1fd0a4f28419497f9722a3daafe3b4186f6b6457e08280a380f35b5050346100e057806003193601126100e057610a50610af0565b6024356001600160a01b0381169291908390036102445761ffff90610a73610b4a565b16808452600160205290832080546001600160a01b031916831790557f2a00dad3333a840171ea0391ef1a1241e87753bd39154bffbeee262a59a4b09d8380a380f35b849084346101a75760203660031901126101a7579160209261ffff610ad9610af0565b168252600184529020546001600160a01b03168152f35b6004359061ffff82168203610b0157565b600080fd5b600435906001600160a01b0382168203610b0157565b9181601f84011215610b015782359167ffffffffffffffff8311610b015760208381860195010111610b0157565b6000546001600160a01b03163303610b5e57565b606460405162461bcd60e51b815260206004820152602060248201527f4f776e61626c653a2063616c6c6572206973206e6f7420746865206f776e65726044820152fd5b6060810190811067ffffffffffffffff821117610bbe57604052565b634e487b7160e01b600052604160045260246000fd5b6040810190811067ffffffffffffffff821117610bbe57604052565b90601f8019910116810190811067ffffffffffffffff821117610bbe57604052565b919082519283825260005b848110610c3e575050826000602080949584010152601f8019910116010190565b602081830181015184830182015201610c1d565b9060606040610c799380518452602081015160208501520151918160408201520190610c12565b90565b67ffffffffffffffff8111610bbe57601f01601f191660200190565b90816020910312610b0157518015158103610b015790565b604051610d0e916001600160a01b0316610cc982610bd4565b6000806020958685527f5361666545524332303a206c6f772d6c6576656c2063616c6c206661696c656487860152868151910182855af1610d08610d8a565b91610dba565b80519081610d1b57505050565b8280610d2b938301019101610c98565b15610d335750565b6084906040519062461bcd60e51b82526004820152602a60248201527f5361666545524332303a204552433230206f7065726174696f6e20646964206e6044820152691bdd081cdd58d8d9595960b21b6064820152fd5b3d15610db5573d90610d9b82610c7c565b91610da96040519384610bf0565b82523d6000602084013e565b606090565b91929015610e1c5750815115610dce575090565b3b15610dd75790565b60405162461bcd60e51b815260206004820152601d60248201527f416464726573733a2063616c6c20746f206e6f6e2d636f6e74726163740000006044820152606490fd5b825190915015610e2f5750805190602001fd5b60405162461bcd60e51b815260206004820152908190610e53906024830190610c12565b0390fd5b903590601e1981360301821215610b01570180359067ffffffffffffffff8211610b0157602001918136038313610b0157565b9190604083820312610b015782356001600160a01b0381168103610b01579260208101359067ffffffffffffffff8211610b01570181601f82011215610b0157803590610ed682610c7c565b92610ee46040519485610bf0565b82845260208383010111610b0157816000926020809301838601378301015290565b3561ffff81168103610b015790565b90816020910312610b0157516001600160a01b0381168103610b015790565b909160c08201916014610f478483610e57565b90501061131f57610f588180610e57565b90506112b8575b606081019061ffff610f7083610f06565b16600052602092600184526040600020549160018060a01b038316156112945760405163068bcd8d60e01b815281860135600482015285816024817f00000000000000000000000000000000000000000000000000000000000000006001600160a01b03165afa90811561120657600091611277575b506001600160a01b0316801561125c578560049160405192838092637e062a3560e11b82525afa9081156112065760009161122f575b506040805163095ea7b360e01b81527f00000000000000000000000000000000000000000000000000000000000000006001600160a01b03811660048301529184013560248201529095909187908390816000816044810103926001600160a01b03165af19182156112065761109792611212575b50610f06565b9060405193611136603461110e6bffffffffffffffffffffffff199a8b8d60601b169b8c8c8b015260148a526110cc8a610bd4565b604051996110d98b610ba2565b60e08801358b526101008801358d8c015260408b01526040519560601b168b8601526014855261110885610bd4565b85610e57565b8060409c929c519c8d938d85015284840137810160008382015203601481018b520189610bf0565b6001600160a01b0386163b15610b01576000976111c86111b561ffff9760a06111d8966040519e8f9d8e9c8d9b6327efc43f60e21b8d521660048c015282013560248b0152608082013560448b0152600180841b031660648a0152604081013560848a0152013560a488015261012060c4880152610124870190610c52565b60031993848783030160e4880152610c12565b9184830301610104850152610c12565b03926001600160a01b03165af18015611206576111f25750565b67ffffffffffffffff8111610bbe57604052565b6040513d6000823e3d90fd5b61122890883d8a11610768576107588183610bf0565b5038611091565b61124f9150863d8811611255575b6112478183610bf0565b810190610f15565b3861101c565b503d61123d565b6040516302ad881560e41b8152868301356004820152602490fd5b61128e9150863d8811611255576112478183610bf0565b38610fe6565b602461129f85610f06565b61ffff604051916315fe4c1560e01b8352166004820152fd5b6000806112d06112c88480610e57565b810190610e8a565b80519160209091019083906001600160a01b03165af16112ee610d8a565b90156112fa5750610f5f565b604051630c369d2560e01b815260206004820152908190610e53906024830190610c12565b6040516318d5844d60e01b8152600490fdfea2646970667358221220adbf545a712dbf55c4572480ec96d17677f9e04d3770741ed20280f13a0475a964736f6c63430008110033",
  "devdoc": {
    "kind": "dev",
    "methods": {
      "owner()": {
        "details": "Returns the address of the current owner."
      },
      "renounceOwnership()": {
        "details": "Leaves the contract without owner. It will not be possible to call `onlyOwner` functions anymore. Can only be called by the current owner. NOTE: Renouncing ownership will leave the contract without an owner, thereby removing any functionality that is only available to the owner."
      },
      "transferOwnership(address)": {
        "details": "Transfers ownership of the contract to a new account (`newOwner`). Can only be called by the current owner."
      }
    },
    "version": 1
  },
  "userdoc": {
    "kind": "user",
    "methods": {},
    "version": 1
  },
  "storageLayout": {
    "storage": [
      {
        "astId": 7,
        "contract": "contracts/StargateProxy.sol:StargateProxy",
        "label": "_owner",
        "offset": 0,
        "slot": "0",
        "type": "t_address"
      },
      {
        "astId": 2411,
        "contract": "contracts/StargateProxy.sol:StargateProxy",
        "label": "dstAddress",
        "offset": 0,
        "slot": "1",
        "type": "t_mapping(t_uint16,t_address)"
      }
    ],
    "types": {
      "t_address": {
        "encoding": "inplace",
        "label": "address",
        "numberOfBytes": "20"
      },
      "t_mapping(t_uint16,t_address)": {
        "encoding": "mapping",
        "key": "t_uint16",
        "label": "mapping(uint16 => address)",
        "numberOfBytes": "32",
        "value": "t_address"
      },
      "t_uint16": {
        "encoding": "inplace",
        "label": "uint16",
        "numberOfBytes": "2"
      }
    }
  }
}